:100000000C942A000C943F000C943F000C943F0089
:100010000C943F000C943F000C943F000C943F0064
:100020000C943F000C943F000C943F000C943F0054
:100030000C943F000C943F000C943F000C943F0044
:100040000C943F000C943F000C943F000C943F0034
:100050000C943F0011241FBECFE5D4E0DEBFCDBF1E
:1000600012E0A0E6B0E0E2EEF1E402C005900D92ED
:10007000A834B107D9F70E94F4060C94EF200C9431
:100080000000EF92FF920F931F937B018C0120E001
:1000900030E040E05FE40E94ED0388238CF0C8016B
:1000A000B70120E030E040E05FE40E94B9010E9427
:1000B000AB049B01AC01205030404040504806C08A
:1000C000C801B7010E94AB049B01AC01B901CA0190
:1000D0001F910F91FF90EF900895A0E0B0E0E3E74B
:1000E000F0E00C94BB1FDC012B01FA019C919230D3
:1000F00008F439C1EB018881823008F433C19430AF
:1001000069F4843009F02FC111969C91119789816F
:10011000981709F428C1A3E3B1E025C1843009F49C
:1001200021C18230A9F4923009F01DC19A01AD01BC
:1001300088E0EA010990AE01E90109929E0181502F
:10014000C1F7E201898111969C918923818308C1BD
:10015000923009F407C112962D903C901397EB0151
:100160008A819B811496AD90BD90CD90DC901797BD
:10017000EC80FD800E811F819101281B390BB90194
:1001800037FF04C066277727621B730B6032710547
:100190000CF061C0121613066CF537014801062EEB
:1001A00004C096948794779467940A94D2F721E0D8
:1001B00030E040E050E004C0220F331F441F551FC1
:1001C0006A95D2F721503040404050402E213F21C7
:1001D00040235123211531054105510521F021E02E
:1001E00030E040E050E079018A01E628F72808294C
:1001F00019293CC0232BD1F1260E371E35014601AB
:10020000062E04C096948794779467940A94D2F744
:1002100021E030E040E050E004C0220F331F441FD3
:10022000551F6A95D2F721503040404050402A2156
:100230003B214C215D21211531054105510521F05E
:1002400021E030E040E050E059016A01A628B728DB
:10025000C828D9280BC0821593052CF01C01AA24AC
:10026000BB24650103C0EE24FF24870111969C91F5
:10027000D20111968C91981709F445C0992339F051
:10028000A80197012A193B094C095D0906C0A6017E
:1002900095012E193F09400B510B57FD08C01182E3
:1002A0003382228224833583468357831DC081E0B5
:1002B00081833382228288279927DC01821B930B5A
:1002C000A40BB50B84839583A683B7830DC0220F3F
:1002D000331F441F551F24833583468357838281F0
:1002E000938101979383828324813581468157814D
:1002F000DA01C9010197A109B1098F5F9F4FAF4F83
:10030000BF4328F30BC0918333822282EA0CFB1C8B
:100310000C1D1D1DE482F5820683178383E0808314
:10032000248135814681578157FF1AC0C901AA2708
:1003300097FDA095BA2F81709070A070B0705695FF
:10034000479537952795822B932BA42BB52B848328
:100350009583A683B7838281938101969383828359
:10036000DF0101C0D201CD01CDB7DEB7E2E10C94CF
:10037000D71FA0E2B0E0EFEBF1E00C94C71F698358
:100380007A838B839C832D833E834F835887E9E058
:10039000EE2EF12CEC0EFD1ECE010196B7010E944F
:1003A00023068E010F5E1F4FCE010596B8010E94F5
:1003B00023068A8991E089278A8BC701B801AE019B
:1003C000475E5F4F0E946D000E944E05A096E6E0DA
:1003D0000C94E31FA0E2B0E0E0EFF1E00C94C71F43
:1003E00069837A838B839C832D833E834F835887D5
:1003F000F9E0EF2EF12CEC0EFD1ECE010196B701B7
:100400000E9423068E010F5E1F4FCE010596B80194
:100410000E942306C701B801AE01475E5F4F0E94EC
:100420006D000E944E05A096E6E00C94E31FA0E24A
:10043000B0E0EDE1F2E00C94BB1F69837A838B831B
:100440009C832D833E834F835887CE010196BE0146
:10045000675F7F4F0E942306CE010596BE016F5E47
:100460007F4F0E9423069985923088F089898230D7
:10047000C8F0943019F4823051F404C0843029F467
:10048000923081F483E391E0C6C0923049F420E0D9
:100490009A858A89981321E02A87CE010996BBC0E4
:1004A000823049F420E09A858A89981321E02A8BCA
:1004B000CE014196B0C02D843E844F8458886D880B
:1004C0007E888F88988CEE24FF248701AA24BB2481
:1004D000650140E050E060E070E0E0E0F0E0C10184
:1004E00081709070892BE9F0E60CF71C081D191D2E
:1004F0009A01AB012A0D3B1D4C1D5D1D80E090E073
:10050000A0E0B0E0E614F7040805190520F481E046
:1005100090E0A0E0B0E0BA01A901480F591F6A1F9E
:100520007B1FAA0CBB1CCC1CDD1C97FE08C081E005
:1005300090E0A0E0B0E0A82AB92ACA2ADB2A3196C6
:10054000E032F10549F0660C771C881C991C569422
:10055000479437942794C3CFFA85EA892B893C893D
:100560008B859C85280F391F2E5F3F4F17C0CA010E
:1005700081709070892B61F016950795F794E79438
:1005800080E090E0A0E0B0E8E82AF92A0A2B1B2BD3
:1005900076956795579547952F5F3F4F77FDE7CF46
:1005A0000CC0440F551F661F771F17FD4160EE0CEE
:1005B000FF1C001F111F21503040403090E05907B0
:1005C00090E0690790E4790760F32B8F3C8FDB01A3
:1005D000CA018F779070A070B07080349105A1052A
:1005E000B10561F447FD0AC0E114F10401051105EC
:1005F00029F0405C5F4F6F4F7F4F40781A8EFE1797
:1006000011F081E08A8F4D8F5E8F6F8F78A383E02A
:10061000898FCE0149960E944E05A096E2E10C9486
:10062000D71FA8E1B0E0E7E1F3E00C94C31F6983B2
:100630007A838B839C832D833E834F835887B9E0D5
:10064000EB2EF12CEC0EFD1ECE010196B7010E949F
:1006500023068E010F5E1F4FCE010596B8010E9442
:1006600023062985223008F47EC03989323010F4FF
:10067000B8017CC08A859A8989278A87243011F03D
:10068000223031F4231709F06EC063E371E06EC0CD
:10069000343039F41D861E861F86188A1C861B86F8
:1006A00004C0323021F484E08987B7015FC02B8514
:1006B0003C858B899C89281B390B3C872B87ED84D3
:1006C000FE840F851889AD88BE88CF88D88CEA143F
:1006D000FB040C051D0540F4EE0CFF1C001F111F50
:1006E000215030403C872B8720E030E040E050E054
:1006F00080E090E0A0E0B0E460E070E0EA14FB0489
:100700000C051D0540F0282B392B4A2B5B2BEA18D2
:10071000FB080C091D09B695A79597958795EE0CD2
:10072000FF1C001F111F6F5F7F4F6F31710531F785
:10073000DA01C9018F779070A070B0708034910594
:10074000A105B10561F427FD0AC0E114F10401051A
:10075000110529F0205C3F4F4F4F5F4F20782D87C8
:100760003E874F87588BBE01675F7F4FCB010E944A
:100770004E056896EAE00C94DF1FA8E1B0E0E3ECD8
:10078000F3E00C94C71F69837A838B839C832D834A
:100790003E834F83588789E0E82EF12CEC0EFD1E36
:1007A000CE010196B7010E9423068E010F5E1F4FF6
:1007B000CE010596B8010E9423068985823040F05B
:1007C0008989823028F0C701B8010E949B0601C0C8
:1007D0008FEF6896E6E00C94E31FA8E1B0E0E3EF4A
:1007E000F3E00C94C71F69837A838B839C832D83EA
:1007F0003E834F83588789E0E82EF12CEC0EFD1ED6
:10080000CE010196B7010E9423068E010F5E1F4F95
:10081000CE010596B8010E9423068985823040F0FA
:100820008989823028F0C701B8010E949B0601C067
:100830008FEF6896E6E00C94E31FA8E1B0E0E3E2F6
:10084000F4E00C94C71F69837A838B839C832D8388
:100850003E834F83588789E0E82EF12CEC0EFD1E75
:10086000CE010196B7010E9423068E010F5E1F4F35
:10087000CE010596B8010E9423068985823040F09A
:100880008989823028F0C701B8010E949B0601C007
:1008900081E06896E6E00C94E31FA8E0B0E0E3E5B1
:1008A000F4E00C94C41F9B01AC0183E08983DA015E
:1008B000C9018827B7FD83959927AA27BB27B82E9A
:1008C000211531054105510519F482E089833AC0AB
:1008D0008823A9F0203080E0380780E0480780E8CE
:1008E000580729F460E070E080E09FEC30C0EE240F
:1008F000FF248701E21AF30A040B150B02C07901E9
:100900008A018EE1C82ED12CDC82CB82ED82FE8260
:100910000F831887C801B7010E94FF0401971816BA
:10092000190684F4082E04C0EE0CFF1C001F111FD2
:100930000A94D2F7ED82FE820F831887C81AD90A6B
:10094000DC82CB82BA82CE0101960E944E052896A7
:10095000E9E00C94E01FACE0B0E0E1EBF4E00C94D3
:10096000CB1F69837A838B839C83CE010196BE0162
:100970006B5F7F4F0E9423068D81823061F1823050
:1009800050F1843021F48E81882351F12EC02F81C3
:10099000388537FD20C06E812F3131051CF066236C
:1009A000F9F023C08EE190E0821B930B29853A85F4
:1009B0004B855C8504C056954795379527958A9554
:1009C000D2F76623B1F050954095309521953F4F71
:1009D0004F4F5F4F0EC020E030E040E050E009C0D4
:1009E0002FEF3FEF4FEF5FE704C020E030E040E043
:1009F00050E8B901CA012C96E2E00C94E71FEF928F
:100A0000FF920F931F937B018C0180E0E81680E03A
:100A1000F80681E0080780E0180788F48FEFE816F1
:100A2000F1040105110531F028F088E090E0A0E024
:100A3000B0E017C080E090E0A0E0B0E012C080E03D
:100A4000E81680E0F80680E0080781E0180728F043
:100A500088E190E0A0E0B0E004C080E190E0A0E098
:100A6000B0E020E230E040E050E0281B390B4A0BB8
:100A70005B0B04C016950795F794E7948A95D2F717
:100A8000F701E55CFE4F8081281B310941095109BE
:100A9000C9011F910F91FF90EF900895DF92EF929F
:100AA000FF920F931F93FC01E480F580068117816C
:100AB000D1808081823048F480E090E0A0E1B0E015
:100AC000E82AF92A0A2B1B2BA5C0843009F49FC001
:100AD000823021F4EE24FF24870105C0E114F104E3
:100AE0000105110519F4E0E0F0E096C06281738120
:100AF0009FEF623879070CF05BC022E83FEF261BBE
:100B0000370B2A3131052CF020E030E040E050E096
:100B10002AC0B801A701022E04C0769567955795A3
:100B200047950A94D2F781E090E0A0E0B0E004C0DD
:100B3000880F991FAA1FBB1F2A95D2F70197A109F9
:100B4000B1098E219F21A023B1230097A105B105F2
:100B500021F081E090E0A0E0B0E09A01AB01282B09
:100B6000392B4A2B5B2BDA01C9018F779070A0706B
:100B7000B07080349105A105B10539F427FF09C093
:100B8000205C3F4F4F4F5F4F04C0215C3F4F4F4FA2
:100B90005F4FE0E0F0E02030A0E03A07A0E04A0735
:100BA000A0E45A0710F0E1E0F0E079018A0127C0E3
:100BB0006038710564F5FB01E158FF4FD801C701AA
:100BC0008F779070A070B07080349105A105B10549
:100BD00039F4E7FE0DC080E490E0A0E0B0E004C08E
:100BE0008FE390E0A0E0B0E0E80EF91E0A1F1B1FA3
:100BF00017FF05C016950795F794E794319687E09F
:100C000016950795F794E7948A95D1F705C0EE24D9
:100C1000FF248701EFEFF0E06E2F67956627679559
:100C2000902F9F77D794DD24D7948E2F8695492FC8
:100C3000462B582F5D29B701CA011F910F91FF90D4
:100C4000EF90DF900895FC01DB014081518122810A
:100C5000622F6F7770E0221F2227221F9381892F36
:100C6000880F822B282F30E0991F9927991F119602
:100C70009C93119721153105A9F541155105610581
:100C8000710511F482E037C082E89FEF13969C93C0
:100C90008E9312979A01AB0167E0220F331F441F16
:100CA000551F6A95D1F783E08C930DC0220F331F37
:100CB000441F551F12968D919C911397019713967F
:100CC0009C938E931297203080E0380780E048078D
:100CD00080E4580758F314962D933D934D935C93FD
:100CE000179708952F3F310579F441155105610596
:100CF000710519F484E08C93089564FF03C081E0CA
:100D00008C9312C01C9210C02F57304013963C9306
:100D10002E93129783E08C9387E0440F551F661F34
:100D2000771F8A95D1F7706414964D935D936D93F8
:100D30007C93179708951F93DC01FB019C919230DF
:100D400008F447C08081823008F443C0943051F4E5
:100D500011961C91843099F58181682F70E0611B98
:100D600071093FC0843021F0923031F48230B9F102
:100D70008181882389F12DC011961C9111978230B1
:100D8000F1F081811817D9F412962D913C911397A7
:100D9000828193818217930794F028173907BCF05A
:100DA00014968D919D910D90BC91A02D248135813B
:100DB00046815781281739074A075B0718F4112322
:100DC00041F00AC082179307A407B50740F4112326
:100DD00019F061E070E005C06FEF7FEF02C060E0E6
:100DE00070E0CB011F910895DF93CF930F92CDB7A1
:100DF000DEB70E94891A0E940207898389810E94B6
:100E00003307F9CFDF93CF930F92CDB7DEB70E94B0
:100E1000B11F80E690E00E94031F81E060E00E9425
:100E2000331F8DE690E00E94031F82E060E00E9485
:100E3000331F8DE790E00E94031F83E060E00E9473
:100E4000331F8CE890E00E94031F0E94741989836D
:100E500089818730D0F789818823B9F389810F9000
:100E6000CF91DF910895DF93CF93CDB7DEB762972F
:100E70000FB6F894DEBF0FBECDBF8D87CE010196B1
:100E80009F878E87EBE3F2E0F98BE88BFCE0FA8B2F
:100E9000E889F9890080888999890196998B888BDE
:100EA000EE85FF8500828E859F8501969F878E87C0
:100EB0009A8991509A8BEA89EE2351F78D85882F74
:100EC00090E001979C01220F331FCE010196FC0197
:100ED000E20FF31F0190F081E02D099562960FB6A5
:100EE000F894DEBF0FBECDBFCF91DF9108950F9371
:100EF0001F93DF93CF93CDB7DEB7CC58D0400FB65A
:100F0000F894DEBF0FBECDBF1D8E1C8E1B8E8AE0F7
:100F1000FE017F96DF01982F1D929A95E9F780E0F8
:100F200090E0A0E0B0E08E8B9F8BA88FB98F80E01F
:100F300090E0A0E8BFE38A8B9B8BAC8BBD8B80E0FD
:100F400090E0ACE2B2E489A79AA7ABA7BCA78BE27A
:100F5000898B188A0E94B11F8CE990E00E94031FC0
:100F600081E060E00E94331F0E9474198E8F8E8D85
:100F70000E94870C8A8F8889803121F482E060E0AA
:100F80000E94331F8E8D8D3009F4AFC18A8D882366
:100F9000A1F48E8D805D0E94141D8B8D282F30E072
:100FA0008E8D482F405DCE014F96FC01E20FF31F5E
:100FB00040838B8D8F5F8B8F6BC08B8D282F30E0A4
:100FC000CE014F96FC01E20FF31F10821B8E8C8D19
:100FD000082F10E0CE014F960E94F21FDC01CB01DA
:100FE000BC01CD010E944D04AB01BC019801220F50
:100FF000331F220F331FCE010196820F931FFC0176
:10100000B896408351836283738389898D3239F521
:101010008C8D082F10E08C8D882F90E09C01220F82
:10102000331F220F331FCE010196820F931FFC0145
:10103000B89680819181A281B381AC01BD017058C5
:101040009801220F331F220F331FCE010196820F0A
:10105000931FFC01B89640835183628373838C8D08
:101060008F5F8C8F8E8D898B8E8D8D3389F08D8DDA
:10107000282F30E0CE0187589F4FFC01E20FF31F6D
:101080008E8D80838D8D8F5F8D8F8E8D0E94141D30
:1010900080E090E0AAEFB3E48B879C87AD87BE87A2
:1010A0006B857C858D859E8520E030E04AE753E4A2
:1010B0000E941702DC01CB018F839887A987BA872A
:1010C0006F81788589859A8520E030E040E85FE38C
:1010D0000E941D0488232CF481E090E09E838D8380
:1010E0003FC06F81788589859A8520E03FEF4FE783
:1010F00057E40E94BD0318164CF56B857C858D85E1
:101100009E8520E030E040E251E40E941702DC01BD
:10111000CB01BC01CD010E944100DC01CB019E83CB
:101120008D830FC089E190E09C838B838B819C81B0
:101130000197F1F79C838B838D819E8101979E831C
:101140008D838D819E81009769F714C06F817885AA
:1011500089859A850E944100DC01CB019E838D83A5
:101160008D819E819A83898389819A810197F1F784
:101170009A83898388898F5F888B8E8D8D3309F060
:10118000F3CE1F8695C08F85882F90E09C01220F9B
:10119000331F220F331FCE010196820F931FFC01D4
:1011A000B89680819181A281B3818A8B9B8BAC8B15
:1011B000BD8B80E20E94141D4EC08F85282F30E029
:1011C000CE0187589F4FFC01E20FF31F80818A32C6
:1011D00001F58F85882F90E001969C01220F331F27
:1011E000220F331FCE010196820F931FFC01B89688
:1011F00020813181428153816A897B898C899D89D3
:101200000E941702DC01CB018A8B9B8BAC8BBD8BC0
:101210001FC08F85882F90E001969C01220F331FFD
:10122000220F331FCE010196820F931FFC01B89647
:1012300020813181428153816A897B898C899D8992
:101240000E941103DC01CB018A8B9B8BAC8BBD8B85
:101250008F858F5F8F878F85282F30E0CE0187584D
:101260009F4FFC01E20FF31F80818A3209F4A5CF62
:101270008F85282F30E0CE0187589F4FFC01E20F69
:10128000F31F8081853209F498CF6E897F89888D1C
:10129000998D2A893B894C895D890E94EA01DC018C
:1012A000CB018E8B9F8BA88FB98F8F858F5F8F8798
:1012B0009F858D8D891708F066CF83E060E00E94DE
:1012C000331F8BEA90E00E94031F6E897F89888D0F
:1012D000998D0E94AB04DC01CB010E948E1F0E94FD
:1012E00074198E8F8E8D8D30D1F7C457DF4F0FB6A6
:1012F000F894DEBF0FBECDBFCF91DF911F910F914C
:101300000895DF93CF93CDB7DEB72E970FB6F8943D
:10131000DEBF0FBECDBF0E94B11F8DEA90E00E94DC
:10132000031F81E060E00E94331F80E090E0AAE7A5
:10133000B4E48B879C87AD87BE876B857C858D8564
:101340009E8520E030E04AE753E40E941702DC016A
:10135000CB018F839887A987BA876F817885898524
:101360009A8520E030E040E85FE30E941D04882376
:101370002CF481E090E09E838D833FC06F8178855F
:1013800089859A8520E03FEF4FE757E40E94BD032F
:1013900018164CF56B857C858D859E8520E030E0A8
:1013A00040E251E40E941702DC01CB01BC01CD01F7
:1013B0000E944100DC01CB019E838D830FC089E137
:1013C00090E09C838B838B819C810197F1F79C83B8
:1013D0008B838D819E8101979E838D838D819E81DC
:1013E000009769F714C06F81788589859A850E9476
:1013F0004100DC01CB019E838D838D819E819A8388
:10140000898389819A810197F1F79A8389832E963E
:101410000FB6F894DEBF0FBECDBFCF91DF91089518
:10142000DF93CF93CDB7DEB761970FB6F894DEBFE9
:101430000FBECDBF0E94B11F8DEB90E00E94031F35
:1014400081E060E00E94331F8DEC90E00E94031F5A
:1014500082E060E00E94331F8AED90E00E94031F4B
:1014600083E060E00E94331F88EE90E00E94031F3B
:101470000E9474198F8780E090E0AAEFB3E48B8715
:101480009C87AD87BE876B857C858D859E8520E09A
:1014900030E04AE753E40E941702DC01CB018F835E
:1014A0009887A987BA876F81788589859A8520E092
:1014B00030E040E85FE30E941D0488232CF481E0C3
:1014C00090E09E838D833FC06F81788589859A8562
:1014D00020E03FEF4FE757E40E94BD0318164CF59C
:1014E0006B857C858D859E8520E030E040E251E46F
:1014F0000E941702DC01CB01BC01CD010E9441001A
:10150000DC01CB019E838D830FC089E190E09C8339
:101510008B838B819C810197F1F79C838B838D81D9
:101520009E8101979E838D838D819E81009769F7AF
:1015300014C06F81788589859A850E944100DC01FD
:10154000CB019E838D838D819E819A83898389813E
:101550009A810197F1F79A8389838F85843008F007
:1015600087CF8F85882309F483CF8F85282F30E09C
:10157000398B288B888999898230910569F028896F
:1015800039892330310559F088899989813091054D
:1015900041F40E94410F05C00E949A0C02C00E94B3
:1015A000FD1161960FB6F894DEBF0FBECDBFCF918F
:1015B000DF910895DF93CF93CDB7DEB72E970FB6A7
:1015C000F894DEBF0FBECDBF0E94B11F89EF90E03F
:1015D0000E94031F81E060E00E94331F80E090E0E2
:1015E000AAE7B4E48B879C87AD87BE876B857C8533
:1015F0008D859E8520E030E04AE753E40E94170283
:10160000DC01CB018F839887A987BA876F817885A2
:1016100089859A8520E030E040E85FE30E941D0460
:1016200088232CF481E090E09E838D833FC06F81FE
:10163000788589859A8520E03FEF4FE757E40E943F
:10164000BD0318164CF56B857C858D859E8520E045
:1016500030E040E251E40E941702DC01CB01BC0102
:10166000CD010E944100DC01CB019E838D830FC020
:1016700089E190E09C838B838B819C810197F1F7BA
:101680009C838B838D819E8101979E838D838D8129
:101690009E81009769F714C06F81788589859A8546
:1016A0000E944100DC01CB019E838D838D819E8150
:1016B0009A83898389819A810197F1F79A83898333
:1016C0002E960FB6F894DEBF0FBECDBFCF91DF913F
:1016D0000895DF93CF93CDB7DEB72E970FB6F8946A
:1016E000DEBF0FBECDBF0E94B11F88E091E00E9417
:1016F000031F81E060E00E94331F80E090E0AAE7D2
:10170000B4E48B879C87AD87BE876B857C858D8590
:101710009E8520E030E04AE753E40E941702DC0196
:10172000CB018F839887A987BA876F817885898550
:101730009A8520E030E040E85FE30E941D048823A2
:101740002CF481E090E09E838D833FC06F8178858B
:1017500089859A8520E03FEF4FE757E40E94BD035B
:1017600018164CF56B857C858D859E8520E030E0D4
:1017700040E251E40E941702DC01CB01BC01CD0123
:101780000E944100DC01CB019E838D830FC089E163
:1017900090E09C838B838B819C810197F1F79C83E4
:1017A0008B838D819E8101979E838D838D819E8108
:1017B000009769F714C06F81788589859A850E94A2
:1017C0004100DC01CB019E838D838D819E819A83B4
:1017D000898389819A810197F1F79A8389832E966B
:1017E0000FB6F894DEBF0FBECDBFCF91DF91089545
:1017F000DF93CF93CDB7DEB72E970FB6F894DEBF49
:101800000FBECDBF0E94B11F87E191E00E94031F70
:1018100081E060E00E94331F80E090E0AAE7B4E43A
:101820008B879C87AD87BE876B857C858D859E85E4
:1018300020E030E04AE753E40E941702DC01CB01CC
:101840008F839887A987BA876F81788589859A85DC
:1018500020E030E040E85FE30E941D0488232CF480
:1018600081E090E09E838D833FC06F81788589857C
:101870009A8520E03FEF4FE757E40E94BD0318161A
:101880004CF56B857C858D859E8520E030E040E2BF
:1018900051E40E941702DC01CB01BC01CD010E9482
:1018A0004100DC01CB019E838D830FC089E190E074
:1018B0009C838B838B819C810197F1F79C838B8325
:1018C0008D819E8101979E838D838D819E8100975E
:1018D00069F714C06F81788589859A850E944100D7
:1018E000DC01CB019E838D838D819E819A838983C8
:1018F00089819A810197F1F79A8389832E960FB691
:10190000F894DEBF0FBECDBFCF91DF910895DF9376
:10191000CF9300D0CDB7DEB7898389818A3010F4A8
:101920001A8202C081E08A838A810F900F90CF9142
:10193000DF910895EF92FF920F931F93DF93CF9360
:10194000CDB7DEB7EF970FB6F894DEBF0FBECDBFB1
:10195000198A8BE2888B8AE0FE01F496DF01282F3A
:101960001D922A95E9F70E94B11F1B8A3AC18B8903
:1019700060E00E94331F8B898F590E94141D8AE3F7
:101980000E94141D8BE2888B0E9474198A8B8A89AD
:101990000E94870C8F878A898D3009F465C28F85F4
:1019A0008823A1F48A89805D0E94141D8989282FCB
:1019B00030E08A89482F405DCE01C496FC01E20FD9
:1019C000F31F408389898F5F898B08C08A898D3393
:1019D00029F08A890E94141D8A89888B80E090E012
:1019E000AAEFB3E48B879C87AD87BE876B857C8528
:1019F0008D859E8520E030E04AE753E40E9417027F
:101A0000DC01CB018F839887A987BA876F8178859E
:101A100089859A8520E030E040E85FE30E941D045C
:101A200088232CF481E090E09E838D833FC06F81FA
:101A3000788589859A8520E03FEF4FE757E40E943B
:101A4000BD0318164CF56B857C858D859E8520E041
:101A500030E040E251E40E941702DC01CB01BC01FE
:101A6000CD010E944100DC01CB019E838D830FC01C
:101A700089E190E09C838B838B819C810197F1F7B6
:101A80009C838B838D819E8101979E838D838D8125
:101A90009E81009769F714C06F81788589859A8542
:101AA0000E944100DC01CB019E838D838D819E814C
:101AB0009A83898389819A810197F1F79A8389832F
:101AC0008A898D3309F060CF8B89A82FB0E0BFAF32
:101AD000AEAF2EAD3FAD2130310599F18EAD9FAD4A
:101AE0008230910509F454C0AEADBFAD109709F036
:101AF00075C08989282F30E0CE01C496FC01E20F21
:101B0000F31F1082198ACE01C4960E94F21FDC01D5
:101B1000CB01BC01CD010E944D04DC01CB0188AB9F
:101B200099ABAAABBBAB88898D3209F057C088A9A5
:101B300099A9AAA9BBA9B05888AB99ABAAABBBAB72
:101B40004DC08989282F30E0CE01C496FC01E20FF8
:101B5000F31F1082198ACE01C4960E94F21FDC0185
:101B6000CB01BC01CD010E944D04DC01CB018CA74F
:101B70009DA7AEA7BFA788898D3281F58CA59DA5AD
:101B8000AEA5BFA5B0588CA79DA7AEA7BFA726C07E
:101B90008989282F30E0CE01C496FC01E20FF31FA3
:101BA0001082198ACE01C4960E94F21FDC01CB017B
:101BB000BC01CD010E944D04DC01CB0188A799A78F
:101BC000AAA7BBA788898D3249F488A599A5AAA59B
:101BD000BBA5B05888A799A7AAA7BBA78B898F5F79
:101BE0008B8B8B89833008F4C2CE6CA57DA58EA526
:101BF0009FA52CA53DA54EA55FA50E941702DC015F
:101C0000CB017C018D0168A979A98AA99BA920E053
:101C100030E040E850EC0E941702DC01CB01BC012F
:101C2000CD0128A539A54AA55BA50E941702DC01B4
:101C3000CB019C01AD01C801B7010E94EA01DC01A2
:101C4000CB018C8F9D8FAE8FBF8F0E94B11F6C8D8B
:101C50007D8D8E8D9F8D20E030E040E050E00E9431
:101C6000ED0388230CF47FC08C8D9D8DAE8DBF8DD0
:101C7000BC01CD010E945320DC01CB01BC01CD0190
:101C80002CA53DA54EA55FA50E94B901DC01CB01A5
:101C90007C018D0128A939A94AA95BA9CA01B9010A
:101CA0000E94EA01DC01CB019C01AD01C801B70132
:101CB0000E941103DC01CB018CA39DA3AEA3BFA3A3
:101CC0008CA59DA5AEA5BFA57C018D0117FB109528
:101CD00017F910958C8D9D8DAE8DBF8DBC01CD01FA
:101CE0000E9453209B01AC01C801B7010E94B901B9
:101CF000DC01CB017C018D0128A939A94AA95BA986
:101D0000CA01B9010E94EA01DC01CB019C01AD01CD
:101D1000C801B7010E941103DC01CB0188A399A37C
:101D2000AAA3BBA385E291E00E94031F6CA17DA141
:101D30008EA19FA10E94AB04DC01CB010E948E1FEB
:101D400081E060E00E94331F89E291E00E94031F5E
:101D500068A179A18AA19BA10E94AB04DC01CB01FF
:101D60000E948E1F7BC068A979A98AA99BA920E03F
:101D700030E040E050EC0E941702DC01CB019C01F6
:101D8000AD016CA57DA58EA59FA50E941103DC0168
:101D9000CB01888F998FAA8FBB8F8C8D9D8DAE8D37
:101DA000BF8DB058BC01CD010E9453207B018C0136
:101DB00028A939A94AA95BA9CA01B9010E94EA0167
:101DC000DC01CB019C01AD01C801B7010E941103E8
:101DD000DC01CB018C8B9D8BAE8BBF8B85E291E0C0
:101DE0000E94031F688D798D8A8D9B8D0E94AB04A4
:101DF000DC01CB010E948E1F8BE20E94141D6C89B6
:101E00007D898E899F890E94AB04DC01CB010E94F1
:101E10008E1F89E60E94141D81E060E00E94331F3E
:101E200089E291E00E94031F688D798D8A8D9B8DD8
:101E30000E94AB04DC01CB010E948E1F8DE20E9448
:101E4000141D6C897D898E899F890E94AB04DC01F9
:101E5000CB010E948E1F89E60E94141D0E947419F6
:101E60008A8B8A898D30D1F7EF960FB6F894DEBF52
:101E70000FBECDBFCF91DF911F910F91FF90EF90DB
:101E80000895EF92FF920F931F93DF93CF93CDB7F7
:101E9000DEB7C354D0400FB6F894DEBF0FBECDBF3F
:101EA000198A8BE2888B8AE0FE01F896DF01282FE1
:101EB0001D922A95E9F70E94B11F1B8AF6C18BE299
:101EC000888B8B89833011F40E94B11F8B898330FA
:101ED00080F08B89835060E00E94331F8B89825A87
:101EE0000E94141D82E30E94141D8AE30E94141DA7
:101EF0000EC08B8960E00E94331F8B898F590E942E
:101F0000141D81E30E94141D8AE30E94141D0E9487
:101F100074198A8B8A890E94870C8F878A898D30F1
:101F200009F45DC28F858823A1F48A89805D0E94AF
:101F3000141D8989282F30E08A89482F405DCE0101
:101F4000C896FC01E20FF31F408389898F5F898B5C
:101F500008C08A898D3329F08A890E94141D8A89D4
:101F6000888B80E090E0AAEFB3E48B879C87AD87F5
:101F7000BE876B857C858D859E8520E030E04AE7B5
:101F800053E40E941702DC01CB018F839887A98755
:101F9000BA876F81788589859A8520E030E040E8AE
:101FA0005FE30E941D0488232CF481E090E09E836F
:101FB0008D833FC06F81788589859A8520E03FEFCA
:101FC0004FE757E40E94BD0318164CF56B857C85DE
:101FD0008D859E8520E030E040E251E40E941702AA
:101FE000DC01CB01BC01CD010E944100DC01CB0131
:101FF0009E838D830FC089E190E09C838B838B81CE
:102000009C810197F1F79C838B838D819E81019741
:102010009E838D838D819E81009769F714C06F81A7
:10202000788589859A850E944100DC01CB019E83D9
:102030008D838D819E819A83898389819A8101977D
:10204000F1F79A8389838A898D3309F060CF8B8970
:10205000A82FB0E02496BFAFAEAF249724962EAD44
:102060003FAD24972230310509F47FC024968EAD10
:102070009FAD2497833091057CF42496AEADBFAD1F
:102080002497109711F124962EAD3FAD249721305F
:10209000310509F442C006C124968EAD9FAD249748
:1020A0008430910509F4B1C02496AEADBFAD24973C
:1020B000A430B1050CF481C024962EAD3FAD249719
:1020C0002530310509F4C8C0EDC08989282F30E0DA
:1020D000CE01C896FC01E20FF31F1082198ACE01CF
:1020E000C8960E94F21FDC01CB01BC01CD010E9409
:1020F0004D04DC01CB018CAB9DABAEABBFAB888993
:102100008D3209F0CFC08CA99DA9AEA9BFA9B05846
:102110008CAB9DABAEABBFABC5C08989282F30E07F
:10212000CE01C896FC01E20FF31F1082198ACE017E
:10213000C8960E94F21FDC01CB01BC01CD010E94B8
:102140004D04DC01CB0188AB99ABAAABBBAB888952
:102150008D3209F0A7C088A999A9AAA9BBA9B0582E
:1021600088AB99ABAAABBBAB9DC08989282F30E067
:10217000CE01C896FC01E20FF31F1082198ACE012E
:10218000C8960E94F21FDC01CB01BC01CD010E9468
:102190004D04DC01CB018CA79DA7AEA7BFA7888902
:1021A0008D3209F07FC08CA59DA5AEA5BFA5B05806
:1021B0008CA79DA7AEA7BFA775C08989282F30E03F
:1021C000CE01C896FC01E20FF31F1082198ACE01DE
:1021D000C8960E94F21FDC01CB01BC01CD010E9418
:1021E0004D04DC01CB0188A799A7AAA7BBA78889C2
:1021F0008D3209F057C088A599A5AAA5BBA5B058EE
:1022000088A799A7AAA7BBA74DC08989282F30E026
:10221000CE01C896FC01E20FF31F1082198ACE018D
:10222000C8960E94F21FDC01CB01BC01CD010E94C7
:102230004D04DC01CB018CA39DA3AEA3BFA3888971
:102240008D3281F58CA19DA1AEA1BFA1B0588CA308
:102250009DA3AEA3BFA326C08989282F30E0CE015D
:10226000C896FC01E20FF31F1082198ACE01C896AE
:102270000E94F21FDC01CB01BC01CD010E944D0484
:10228000DC01CB0188A399A3AAA3BBA388898D32C3
:1022900049F488A199A1AAA1BBA1B05888A399A388
:1022A000AAA3BBA38B898F5F8B8B8B89863008F4A5
:1022B00006CE6CA97DA98EA99FA928A539A54AA5F6
:1022C0005BA50E941103DC01CB018C8B9D8BAE8B37
:1022D000BF8B6C897D898E899F8928A139A14AA1EC
:1022E0005BA10E941702DC01CB019C01AD016CA532
:1022F0007DA58EA59FA50E94B901DC01CB017C01C3
:102300008D016C897D898E899F892CA13DA14EA16B
:102310005FA10E941702DC01CB019C01AD0168A9FD
:1023200079A98AA99BA90E94B901DC01CB019C0172
:10233000AD01C801B7010E941103DC01CB01888FF8
:10234000998FAA8FBB8F68A979A98AA99BA9288D83
:10235000398D4A8D5B8D0E941702DC01CB019C01F7
:10236000AD016CA57DA58EA59FA50E94B901DC01DC
:10237000CB01BC01CD012CA93DA94EA95FA90E94AA
:102380001103DC01CB018C8F9D8FAE8FBF8F0E941C
:10239000B11F8DE291E00E94031F6C8D7D8D8E8DAB
:1023A0009F8D0E94AB04DC01CB010E948E1F81E057
:1023B00060E00E94331F80E391E00E94031F688D5C
:1023C000798D8A8D9B8D0E94AB04DC01CB010E942C
:1023D0008E1F0E9474198A8B8A898D30D1F7CD5B4C
:1023E000DF4F0FB6F894DEBF0FBECDBFCF91DF91A8
:1023F0001F910F91FF90EF9008950F931F93DF931C
:10240000CF93CDB7DEB7C557D0400FB6F894DEBF37
:102410000FBECDBF198A8BE2888BCE0184599F4FA6
:102420002AE0FC01DF01822F1D928A95E9F70E94C4
:10243000B11F1B8A40C38BE2888B8B89843019F0D3
:102440008B89883011F40E94B11F8B89883080F00D
:102450008B89885060E00E94331F8B89875A0E94C5
:10246000141D83E30E94141D8AE30E94141D21C0E1
:102470008B89843080F08B89845060E00E94331F08
:102480008B89835A0E94141D82E30E94141D8AE3E3
:102490000E94141D0EC08B8960E00E94331F8B893F
:1024A0008F590E94141D81E30E94141D8AE30E942B
:1024B000141D0E9474198A8B8A890E94870C8F8749
:1024C0008A898D3009F4C6C38F858823A9F48A8947
:1024D000805D0E94141D8989282F30E08A89482F49
:1024E000405DCE0184599F4FFC01E20FF31F4083F2
:1024F00089898F5F898B08C08A898D3329F08A8901
:102500000E94141D8A89888B80E090E0AAEFB3E4D2
:102510008B879C87AD87BE876B857C858D859E85E7
:1025200020E030E04AE753E40E941702DC01CB01CF
:102530008F839887A987BA876F81788589859A85DF
:1025400020E030E040E85FE30E941D0488232CF483
:1025500081E090E09E838D833FC06F81788589857F
:102560009A8520E03FEF4FE757E40E94BD0318161D
:102570004CF56B857C858D859E8520E030E040E2C2
:1025800051E40E941702DC01CB01BC01CD010E9485
:102590004100DC01CB019E838D830FC089E190E077
:1025A0009C838B838B819C810197F1F79C838B8328
:1025B0008D819E8101979E838D838D819E81009761
:1025C00069F714C06F81788589859A850E944100DA
:1025D000DC01CB019E838D838D819E819A838983CB
:1025E00089819A810197F1F79A8389838A898D334A
:1025F00009F05FCF8B89882309F45AC28B89813017
:10260000A9F58989282F30E0CE0184599F4FFC011C
:10261000E20FF31F1082198ACE0184599F4F0E9446
:10262000F21FDC01CB018E010C591F4FBC01CD0103
:102630000E944D04DC01CB01F80180839183A283C9
:10264000B38388898D3209F033C29E012C593F4FE4
:10265000FE01EC59FF4F80819181A281B381B05876
:10266000F90180839183A283B38322C28B89823054
:10267000A9F58989282F30E0CE0184599F4FFC01AC
:10268000E20FF31F1082198ACE0184599F4F0E94D6
:10269000F21FDC01CB018E01005A1F4FBC01CD019E
:1026A0000E944D04DC01CB01F80180839183A28359
:1026B000B38388898D3209F0FBC19E01205A3F4FB8
:1026C000FE01E05AFF4F80819181A281B381B05811
:1026D000F90180839183A283B383EAC18B8983301C
:1026E000A9F58989282F30E0CE0184599F4FFC013C
:1026F000E20FF31F1082198ACE0184599F4F0E9466
:10270000F21FDC01CB018E01045A1F4FBC01CD0129
:102710000E944D04DC01CB01F80180839183A283E8
:10272000B38388898D3209F0C3C19E01245A3F4F7B
:10273000FE01E45AFF4F80819181A281B381B0589C
:10274000F90180839183A283B383B2C18B898430E2
:10275000A9F58989282F30E0CE0184599F4FFC01CB
:10276000E20FF31F1082198ACE0184599F4F0E94F5
:10277000F21FDC01CB018E01085A1F4FBC01CD01B5
:102780000E944D04DC01CB01F80180839183A28378
:10279000B38388898D3209F08BC19E01285A3F4F3F
:1027A000FE01E85AFF4F80819181A281B381B05828
:1027B000F90180839183A283B3837AC18B898530A9
:1027C000A9F58989282F30E0CE0184599F4FFC015B
:1027D000E20FF31F1082198ACE0184599F4F0E9485
:1027E000F21FDC01CB018E010C5A1F4FBC01CD0141
:1027F0000E944D04DC01CB01F80180839183A28308
:10280000B38388898D3209F053C19E012C5A3F4F02
:10281000FE01EC5AFF4F80819181A281B381B058B3
:10282000F90180839183A283B38342C18B8986306F
:10283000A9F58989282F30E0CE0184599F4FFC01EA
:10284000E20FF31F1082198ACE0184599F4F0E9414
:10285000F21FDC01CB018E01005B1F4FBC01CD01DB
:102860000E944D04DC01CB01F80180839183A28397
:10287000B38388898D3209F01BC19E01205B3F4FD5
:10288000FE01E05BFF4F80819181A281B381B0584E
:10289000F90180839183A283B3830AC18B89873036
:1028A000A9F58989282F30E0CE0184599F4FFC017A
:1028B000E20FF31F1082198ACE0184599F4F0E94A4
:1028C000F21FDC01CB018E01045B1F4FBC01CD0167
:1028D0000E944D04DC01CB01F80180839183A28327
:1028E000B38388898D3209F0E3C09E01245B3F4F9A
:1028F000FE01E45BFF4F80819181A281B381B058DA
:10290000F90180839183A283B383D2C08B898830FD
:10291000A9F58989282F30E0CE0184599F4FFC0109
:10292000E20FF31F1082198ACE0184599F4F0E9433
:10293000F21FDC01CB018E01085B1F4FBC01CD01F2
:102940000E944D04DC01CB01F80180839183A283B6
:10295000B38388898D3209F0ABC09E01285B3F4F5D
:10296000FE01E85BFF4F80819181A281B381B05865
:10297000F90180839183A283B3839AC08B898930C4
:10298000A9F58989282F30E0CE0184599F4FFC0199
:10299000E20FF31F1082198ACE0184599F4F0E94C3
:1029A000F21FDC01CB018E010C5B1F4FBC01CD017E
:1029B0000E944D04DC01CB01F80180839183A28346
:1029C000B38388898D3209F073C09E012C5B3F4F21
:1029D000FE01EC5BFF4F80819181A281B381B058F1
:1029E000F90180839183A283B38362C08B898A308B
:1029F000A1F58989282F30E0CE0184599F4FFC0131
:102A0000E20FF31F1082198ACE0184599F4F0E9452
:102A1000F21FDC01CB018E01005C1F4FBC01CD0118
:102A20000E944D04DC01CB01F80180839183A283D5
:102A3000B38388898D32E1F59E01205C3F4FFE0112
:102A4000E05CFF4F80819181A281B381B058F90190
:102A500080839183A283B3832BC08B898B3041F514
:102A60008989282F30E0CE0184599F4FFC01E20F65
:102A7000F31F1082198ACE0184599F4F0E94F21FC2
:102A8000DC01CB01BC01CD010E944D04DC01CB0176
:102A90008CAF9DAFAEAFBFAF88898D3249F48CAD9E
:102AA0009DADAEADBFADB0588CAF9DAFAEAFBFAFBB
:102AB0008B898F5F8B8B8B898C3008F4BCCCFE01AB
:102AC000E859FF4F60817181828193810E944100AA
:102AD000DC01CB010E94141D80E20E94141DFE0146
:102AE000EC59FF4F60817181828193810E94410086
:102AF000DC01CB010E94141D80E20E94141DFE0126
:102B0000E05AFF4F60817181828193810E94410070
:102B1000DC01CB010E94141D80E20E94141DFE0105
:102B2000E45AFF4F60817181828193810E9441004C
:102B3000DC01CB010E94141D80E20E94141D81E083
:102B400060E00E94331FFE01E85AFF4F60817181EF
:102B5000828193810E944100DC01CB010E94141DFF
:102B600080E20E94141DFE01EC5AFF4F60817181CA
:102B7000828193810E944100DC01CB010E94141DDF
:102B800080E20E94141DFE01E05BFF4F60817181B5
:102B9000828193810E944100DC01CB010E94141DBF
:102BA00080E20E94141DFE01E45BFF4F6081718191
:102BB000828193810E944100DC01CB010E94141D9F
:102BC00080E20E94141D82E060E00E94331FFE013B
:102BD000E85BFF4F60817181828193810E94410097
:102BE000DC01CB010E94141D80E20E94141DFE0135
:102BF000EC5BFF4F60817181828193810E94410073
:102C0000DC01CB010E94141D80E20E94141DFE0114
:102C1000E05CFF4F60817181828193810E9441005D
:102C2000DC01CB010E94141D80E20E94141D6CADDA
:102C30007DAD8EAD9FAD0E944100DC01CB010E94B5
:102C4000141D80E20E94141D0E9474198A8B8A89C7
:102C50008D30D1F7CB58DF4F0FB6F894DEBF0FBEE3
:102C6000CDBFCF91DF911F910F910895DF93CF9347
:102C700000D000D00F92CDB7DEB789836A834B8333
:102C80008A81883008F0D5C08981843008F0D1C0AD
:102C90008981282F30E03D832C838C819D81813078
:102CA000910509F443C02C813D81223031052CF47B
:102CB0008C819D81009771F0BCC02C813D812230B8
:102CC000310509F45FC08C819D818330910509F441
:102CD00085C0AFC08B818130A1F4AAE3B0E0EAE304
:102CE000F0E08081482F8A81282F30E081E090E059
:102CF000022E02C0880F991F0A94E2F7842B8C934E
:102D000098C0AAE3B0E0EAE3F0E08081482F8A812E
:102D1000282F30E081E090E0022E02C0880F991F3A
:102D20000A94E2F7809584238C9383C08B81813051
:102D3000A1F4A7E3B0E0E7E3F0E08081482F8A81C7
:102D4000282F30E081E090E0022E02C0880F991F0A
:102D50000A94E2F7842B8C936CC0A7E3B0E0E7E31E
:102D6000F0E08081482F8A81282F30E081E090E0D8
:102D7000022E02C0880F991F0A94E2F780958423DF
:102D80008C9357C08B818130A1F4A4E3B0E0E4E3DD
:102D9000F0E08081482F8A81282F30E081E090E0A8
:102DA000022E02C0880F991F0A94E2F7842B8C939D
:102DB00040C0A4E3B0E0E4E3F0E08081482F8A81E2
:102DC000282F30E081E090E0022E02C0880F991F8A
:102DD0000A94E2F7809584238C932BC08B818130F9
:102DE000A1F4A1E3B0E0E1E3F0E08081482F8A8123
:102DF000282F30E081E090E0022E02C0880F991F5A
:102E00000A94E2F7842B8C9314C0A1E3B0E0E1E3D1
:102E1000F0E08081482F8A81282F30E081E090E027
:102E2000022E02C0880F991F0A94E2F7809584232E
:102E30008C930F900F900F900F900F90CF91DF9188
:102E40000895DF93CF9300D000D00F92CDB7DEB7B7
:102E500089836A834B838A81883008F0D5C0898151
:102E6000843008F0D1C08981282F30E03D832C8345
:102E70008C819D818130910509F443C02C813D8175
:102E8000223031052CF48C819D81009771F0BCC0FB
:102E90002C813D812230310509F45FC08C819D81F8
:102EA0008330910509F485C0AFC08B818130A1F4D6
:102EB000ABE3B0E0EBE3F0E08081482F8A81282F7C
:102EC00030E081E090E0022E02C0880F991F0A9442
:102ED000E2F7842B8C9398C0ABE3B0E0EBE3F0E037
:102EE0008081482F8A81282F30E081E090E0022EF7
:102EF00002C0880F991F0A94E2F7809584238C936F
:102F000083C08B818130A1F4A8E3B0E0E8E3F0E076
:102F10008081482F8A81282F30E081E090E0022EC6
:102F200002C0880F991F0A94E2F7842B8C936CC01F
:102F3000A8E3B0E0E8E3F0E08081482F8A81282F01
:102F400030E081E090E0022E02C0880F991F0A94C1
:102F5000E2F7809584238C9357C08B818130A1F454
:102F6000A5E3B0E0E5E3F0E08081482F8A81282FD7
:102F700030E081E090E0022E02C0880F991F0A9491
:102F8000E2F7842B8C9340C0A5E3B0E0E5E3F0E0EA
:102F90008081482F8A81282F30E081E090E0022E46
:102FA00002C0880F991F0A94E2F7809584238C93BE
:102FB0002BC08B818130A1F4A2E3B0E0E2E3F0E02A
:102FC0008081482F8A81282F30E081E090E0022E16
:102FD00002C0880F991F0A94E2F7842B8C9314C0C7
:102FE000A2E3B0E0E2E3F0E08081482F8A81282F5D
:102FF00030E081E090E0022E02C0880F991F0A9411
:10300000E2F7809584238C930F900F900F900F9090
:103010000F90CF91DF910895DF93CF9300D000D030
:103020000F92CDB7DEB78A836B8319828B8188308C
:1030300008F084C08A81843008F080C08A81282FFB
:1030400030E03D832C834C815D814130510579F125
:103050008C819D818230910534F42C813D81211534
:10306000310569F06BC04C815D8142305105B9F189
:103070008C819D818330910509F449C05FC0E9E3EB
:10308000F0E08081282F30E08B81882F90E0A9012B
:1030900002C0559547958A95E2F7CA0181709070F4
:1030A000882319F081E0898349C0198247C0E6E38B
:1030B000F0E08081282F30E08B81882F90E0A901FB
:1030C00002C0559547958A95E2F7CA0181709070C4
:1030D000882319F081E0898331C019822FC0E3E38E
:1030E000F0E08081282F30E08B81882F90E0A901CB
:1030F00002C0559547958A95E2F7CA018170907094
:10310000882319F081E0898319C0198217C0E0E390
:10311000F0E08081282F30E08B81882F90E0A9019A
:1031200002C0559547958A95E2F7CA018170907063
:10313000882319F081E0898301C0198289810F9069
:103140000F900F900F900F90CF91DF910895DF9324
:10315000CF9300D000D0CDB7DEB789836A83898151
:10316000843090F58981282F30E03C832B838B813C
:103170009C8181309105D1F02B813C812230310539
:103180002CF48B819C81009761F01EC02B813C81C7
:103190002230310581F08B819C818330910581F053
:1031A00013C0EAE3F0E08A8180830EC0E7E3F0E039
:1031B0008A81808309C0E4E3F0E08A81808304C0CF
:1031C000E1E3F0E08A8180830F900F900F900F90E1
:1031D000CF91DF910895DF93CF9300D000D0CDB78A
:1031E000DEB789836A838981843090F58981282FAD
:1031F00030E03C832B838B819C8181309105D1F021
:103200002B813C81223031052CF48B819C810097ED
:1032100061F01EC02B813C812230310581F08B8111
:103220009C818330910581F013C0EBE3F0E08A814B
:1032300080830EC0E8E3F0E08A81808309C0E5E383
:10324000F0E08A81808304C0E2E3F0E08A81808339
:103250000F900F900F900F90CF91DF910895DF9313
:10326000CF9300D000D0CDB7DEB78A8319828A8190
:10327000843090F58A81282F30E03C832B838B812A
:103280009C8181309105D1F02B813C812230310528
:103290002CF48B819C81009761F01EC02B813C81B6
:1032A0002230310581F08B819C818330910581F042
:1032B00013C0E9E3F0E0808189830EC0E6E3F0E02B
:1032C0008081898309C0E3E3F0E08081898304C0C1
:1032D000E0E3F0E08081898389810F900F900F9067
:1032E0000F90CF91DF910895DF93CF9300D0CDB7AA
:1032F000DEB781E064E040E00E94361681E065E0E0
:1033000040E00E94361681E066E040E00E943616FA
:1033100081E067E040E00E94361681E060E040E036
:103320000E94361681E061E040E00E94361681E09E
:1033300062E040E00E94361681E063E040E00E94D7
:10334000361619823BC08981982F9C5F81E0692FD6
:1033500041E00E9436168981982F9C5F81E0692F99
:1033600040E00E9421171A821BC081E06A810E94FE
:103370000C18882391F48A81882F90E0880F991F78
:10338000880F991F982F8981890F8F5F0E94E219FA
:103390000F900F90CF91DF9108958A818F5F8A837C
:1033A0008A81843010F38981982F9C5F81E0692F96
:1033B00040E00E94361689818F5F8983898184303D
:1033C00010F2BFCFDF93CF9300D000D0CDB7DEB7E0
:1033D0008A8319828A81282F30E03C832B838B815A
:1033E0009C818830910509F470C02B813C81293083
:1033F00031055CF58B819C818430910509F459C0BD
:103400002B813C81253031059CF48B819C8182305D
:10341000910509F448C02B813C81233031050CF023
:1034200045C08B819C818130910509F439C067C00A
:103430002B813C812630310509F441C08B819C8170
:10344000873091050CF03EC037C02B813C812C3079
:10345000310509F446C08B819C818D3091055CF467
:103460002B813C812A303105B1F18B819C818B30DD
:103470009105A4F52DC02B813C812E303105B9F189
:103480008B819C818E3091057CF12B813C812F308A
:10349000310579F18B819C818031910569F12FC0D3
:1034A00087E089832EC088E089832BC089E08983E7
:1034B00028C085E2898325C084E0898322C085E015
:1034C00089831FC086E089831CC08AE2898319C072
:1034D00081E0898316C082E0898313C083E08983F9
:1034E00010C08DE289830DC08DE089830AC01982E6
:1034F00008C08DE3898305C08BE2898302C08A817D
:10350000898389810F900F900F900F90CF91DF9159
:103510000895DF93CF93CDB7DEB72E970FB6F8940B
:10352000DEBF0FBECDBF82E060E041E00E943616F4
:1035300082E061E041E00E94361680E090E0A0EA7F
:10354000B1E48B879C87AD87BE876B857C858D8535
:103550009E8520E030E04AE753E40E941702DC0138
:10356000CB018F839887A987BA876F8178858985F2
:103570009A8520E030E040E85FE30E941D04882344
:103580002CF481E090E09E838D833FC06F8178852D
:1035900089859A8520E03FEF4FE757E40E94BD03FD
:1035A00018164CF56B857C858D859E8520E030E076
:1035B00040E251E40E941702DC01CB01BC01CD01C5
:1035C0000E944100DC01CB019E838D830FC089E105
:1035D00090E09C838B838B819C810197F1F79C8386
:1035E0008B838D819E8101979E838D838D819E81AA
:1035F000009769F714C06F81788589859A850E9444
:103600004100DC01CB019E838D838D819E819A8355
:10361000898389819A810197F1F79A83898380E070
:103620006FEF0E94A71888E30E94251B8CE00E9480
:10363000251B81E00E94251B2E960FB6F894DEBF55
:103640000FBECDBFCF91DF910895DF93CF93CDB75C
:10365000DEB7E9970FB6F894DEBF0FBECDBF89AFD6
:1036600082E060E040E00E94211780E090E0A0E866
:10367000BFE38DAB9EABAFABB8AF6DA97EA98FA9F1
:1036800098AD20E030E04AE753E40E941702DC01E5
:10369000CB0189AB9AABABABBCAB69A97AA98BA9BF
:1036A0009CA920E030E040E85FE30E941D048823ED
:1036B0002CF481E090E098AB8FA73FC069A97AA96C
:1036C0008BA99CA920E03FEF4FE757E40E94BD0380
:1036D00018164CF56DA97EA98FA998AD20E030E0B1
:1036E00040E251E40E941702DC01CB01BC01CD0194
:1036F0000E944100DC01CB0198AB8FA70FC089E18C
:1037000090E09EA78DA78DA59EA50197F1F79EA796
:103710008DA78FA598A9019798AB8FA78FA598A97A
:10372000009769F714C069A97AA98BA99CA90E947E
:103730004100DC01CB0198AB8FA78FA598A99CA76E
:103740008BA78BA59CA50197F1F79CA78BA782E07F
:1037500061E041E00E94211780E090E0A0E8BFE333
:103760008FA398A7A9A7BAA76FA178A589A59AA59D
:1037700020E030E04AE753E40E941702DC01CB016D
:103780008BA39CA3ADA3BEA36BA17CA18DA19EA185
:1037900020E030E040E85FE30E941D0488232CF421
:1037A00081E090E09AA389A33FC06BA17CA18DA189
:1037B0009EA120E03FEF4FE757E40E94BD0318169B
:1037C0004CF56FA178A589A59AA520E030E040E2EC
:1037D00051E40E941702DC01CB01BC01CD010E9423
:1037E0004100DC01CB019AA389A30FC089E190E0DD
:1037F00098A38F8F8F8D98A10197F1F798A38F8F42
:1038000089A19AA101979AA389A389A19AA1009756
:1038100069F714C06BA17CA18DA19EA10E944100FB
:10382000DC01CB019AA389A389A19AA19E8F8D8FD8
:103830008D8D9E8D0197F1F79E8F8D8F80E069AD04
:103840000E94EB1880E090E0A0E8BFE3898F9A8F98
:10385000AB8FBC8F698D7A8D8B8D9C8D20E030E095
:103860004AE753E40E941702DC01CB018D8B9E8B4B
:10387000AF8BB88F6D897E898F89988D20E030E07D
:1038800040E85FE30E941D0488232CF481E090E06F
:103890009C8B8B8B3FC06D897E898F89988D20E0B2
:1038A0003FEF4FE757E40E94BD0318164CF5698DB2
:1038B0007A8D8B8D9C8D20E030E040E251E40E94B7
:1038C0001702DC01CB01BC01CD010E944100DC01EB
:1038D000CB019C8B8B8B0FC089E190E09A8B898BFD
:1038E00089899A890197F1F79A8B898B8B899C89B1
:1038F00001979C8B8B8B8B899C89009769F714C0EF
:103900006D897E898F89988D0E944100DC01CB01F1
:103910009C8B8B8B8B899C89988B8F878F859889C3
:103920000197F1F7988B8F8782E061E040E00E9479
:10393000211780E090E0A0E8BFE38B879C87AD87EC
:10394000BE876B857C858D859E8520E030E04AE7CB
:1039500053E40E941702DC01CB018F839887A9876B
:10396000BA876F81788589859A8520E030E040E8C4
:103970005FE30E941D0488232CF481E090E09E8385
:103980008D833FC06F81788589859A8520E03FEFE0
:103990004FE757E40E94BD0318164CF56B857C85F4
:1039A0008D859E8520E030E040E251E40E941702C0
:1039B000DC01CB01BC01CD010E944100DC01CB0147
:1039C0009E838D830FC089E190E09C838B838B81E4
:1039D0009C810197F1F79C838B838D819E81019758
:1039E0009E838D838D819E81009769F714C06F81BE
:1039F000788589859A850E944100DC01CB019E83F0
:103A00008D838D819E819A83898389819A81019793
:103A1000F1F79A838983E9960FB6F894DEBF0FBE5B
:103A2000CDBFCF91DF910895DF93CF93CDB7DEB7B0
:103A3000E9970FB6F894DEBF0FBECDBF89AF82E025
:103A400060E041E00E94211780E090E0A0E8BFE341
:103A50008DAB9EABAFABB8AF6DA97EA98FA998AD6A
:103A600020E030E04AE753E40E941702DC01CB017A
:103A700089AB9AABABABBCAB69A97AA98BA99CA962
:103A800020E030E040E85FE30E941D0488232CF42E
:103A900081E090E098AB8FA73FC069A97AA98BA974
:103AA0009CA920E03FEF4FE757E40E94BD031816A2
:103AB0004CF56DA97EA98FA998AD20E030E040E2D9
:103AC00051E40E941702DC01CB01BC01CD010E9430
:103AD0004100DC01CB0198AB8FA70FC089E190E0DA
:103AE0009EA78DA78DA59EA50197F1F79EA78DA7EF
:103AF0008FA598A9019798AB8FA78FA598A9009734
:103B000069F714C069A97AA98BA99CA90E944100F0
:103B1000DC01CB0198AB8FA78FA598A99CA78BA799
:103B20008BA59CA50197F1F79CA78BA782E061E08C
:103B300041E00E94211780E090E0A0E8BFE38FA35E
:103B400098A7A9A7BAA76FA178A589A59AA520E0EB
:103B500030E04AE753E40E941702DC01CB018BA35B
:103B60009CA3ADA3BEA36BA17CA18DA19EA120E0CF
:103B700030E040E85FE30E941D0488232CF481E0DC
:103B800090E09AA389A33FC06BA17CA18DA19EA1C7
:103B900020E03FEF4FE757E40E94BD0318164CF5B5
:103BA0006FA178A589A59AA520E030E040E251E414
:103BB0000E941702DC01CB01BC01CD010E94410033
:103BC000DC01CB019AA389A30FC089E190E098A3FF
:103BD0008F8F8F8D98A10197F1F798A38F8F89A16F
:103BE0009AA101979AA389A389A19AA1009769F73D
:103BF00014C06BA17CA18DA19EA10E944100DC019B
:103C0000CB019AA389A389A19AA19E8F8D8F8D8DB7
:103C10009E8D0197F1F79E8F8D8F80E069AD0E9498
:103C2000EB1880E090E0A0E8BFE3898F9A8FAB8F1C
:103C3000BC8F698D7A8D8B8D9C8D20E030E04AE7BA
:103C400053E40E941702DC01CB018D8B9E8BAF8B5E
:103C5000B88F6D897E898F89988D20E030E040E8AB
:103C60005FE30E941D0488232CF481E090E09C8B8C
:103C70008B8B3FC06D897E898F89988D20E03FEFC7
:103C80004FE757E40E94BD0318164CF5698D7A8DF5
:103C90008B8D9C8D20E030E040E251E40E941702C1
:103CA000DC01CB01BC01CD010E944100DC01CB0154
:103CB0009C8B8B8B0FC089E190E09A8B898B8989D3
:103CC0009A890197F1F79A8B898B8B899C89019747
:103CD0009C8B8B8B8B899C89009769F714C06D89AD
:103CE0007E898F89988D0E944100DC01CB019C8BDD
:103CF0008B8B8B899C89988B8F878F85988901976F
:103D0000F1F7988B8F8782E061E040E00E942117F5
:103D100080E090E0A0E8BFE38B879C87AD87BE87FB
:103D20006B857C858D859E8520E030E04AE753E4F5
:103D30000E941702DC01CB018F839887A987BA877D
:103D40006F81788589859A8520E030E040E85FE3DF
:103D50000E941D0488232CF481E090E09E838D83D3
:103D60003FC06F81788589859A8520E03FEF4FE7D6
:103D700057E40E94BD0318164CF56B857C858D8534
:103D80009E8520E030E040E251E40E941702DC0111
:103D9000CB01BC01CD010E944100DC01CB019E831F
:103DA0008D830FC089E190E09C838B838B819C8104
:103DB0000197F1F79C838B838D819E8101979E8370
:103DC0008D838D819E81009769F714C06F817885FE
:103DD00089859A850E944100DC01CB019E838D83F9
:103DE0008D819E819A83898389819A810197F1F7D8
:103DF0009A838983E9960FB6F894DEBF0FBECDBFD4
:103E0000CF91DF910895DF93CF9300D00F92CDB77C
:103E1000DEB79B838A83198215C08981803121F4A2
:103E200082E060E00E94331F8981282F30E08A8180
:103E30009B81FC01E20FF31F80810E94141D898188
:103E40008F5F89838981282F30E08A819B81FC01E3
:103E5000E20FF31F8081882301F70F900F900F90DE
:103E6000CF91DF910895DF93CF9300D000D00F92D0
:103E7000CDB7DEB78A836B838A81282F30E03D83FC
:103E80002C838C819D8181309105C1F02C813D81F5
:103E9000223031052CF48C819D81009761F019C08E
:103EA0002C813D812230310569F08C819D818330E8
:103EB000910561F00EC08B8189830BC08B81805C82
:103EC000898307C08B81805F898303C08B81805B7E
:103ED0008983898180680E94251B0F900F900F9025
:103EE0000F900F90CF91DF910895DF93CF9300D083
:103EF00000D0CDB7DEB789836A835C834B83898129
:103F00006A810E94331F8B819C810E94031F0F9046
:103F10000F900F900F90CF91DF910895DF93CF9383
:103F2000CDB7DEB762970FB6F894DEBF0FBECDBF38
:103F30009A8B898B89899A899E012F5F3F4FB9019E
:103F40004AE050E00E941920CE0101960E94031F12
:103F500062960FB6F894DEBF0FBECDBFCF91DF9152
:103F60000895DF93CF93CDB7DEB781E00E94251B84
:103F7000CF91DF9108952F923F924F925F926F926F
:103F80007F928F929F92AF92BF92CF92DF92EF92E9
:103F9000FF920F931F93CF93DF93CDB7DEB7CA1B6A
:103FA000DB0B0FB6F894DEBF0FBECDBF09942A8895
:103FB000398848885F846E847D848C849B84AA843D
:103FC000B984C884DF80EE80FD800C811B81AA81CA
:103FD000B981CE0FD11D0FB6F894DEBF0FBECDBF95
:103FE000ED0108951F93FC0199278827BC01E894EF
:103FF00011911032E9F3193010F01E30C8F31B3262
:1040000051F01D3249F4689406C00E943A20610FB5
:10401000711D811D911D119110531A30B0F33EF4A2
:1040200090958095709561957F4F8F4F9F4F1F9111
:104030000895FB019F01E8944230C4F04532B4F486
:104040004A3029F497FB1EF4909581959F4F642F79
:1040500077270E94DB20805D8A330CF0895D819395
:10406000CB010097A1F716F45DE251931082C901CC
:104070000C949120592F482F372F262F660F771F2A
:10408000881F991F660F771F881F991F620F731F64
:10409000841F951F660F771F881F991F089511F4BD
:1040A0000EF45DC04EC06DD0D0F39923D9F3CEF39A
:1040B0009F57550B87FF56D00024A0E640EA900199
:1040C00080585695979528F4805C660F771F881F57
:1040D00020F026173707480730F4621B730B840B58
:1040E000202931294A2BA69517940794202531259C
:1040F0004A2758F7660F771F881F20F026173707C3
:10410000480730F4620B730B840B200D311D411DE9
:10411000A09581F7B901842F9158880F96958795BE
:104120000895DC01FC01672F71917723E1F7329745
:1041300004C07C916D9370836291AE17BF07C8F382
:1041400008959F3F31F0915020F4879577956795BA
:10415000B795880F911D9695879597F908959FEFCC
:1041600080EC089591505040660F771F881FD2F75A
:10417000089557FD9058440F551F59F05F3F71F057
:104180004795880F97FB991F61F09F3F79F08795BE
:104190000895121613061406551FF2CF4695F1DF47
:1041A00008C0161617061806991FF1CF86957105D7
:1041B000610508940895AA1BBB1B51E107C0AA1F03
:1041C000BB1FA617B70710F0A61BB70B881F991FB8
:1041D0005A95A9F780959095BC01CD010895F89462
:0241E000FFCF0F
:1041E200456E746572204D6F6465202100313A4E30
:1041F2004F524D2020323A434D504C5800333A45ED
:10420200514E532020343A4D54525800353A5645B7
:1042120043542020363A5441424C45002020204E3F
:104222006F726D616C204D6F6465003D002020202F
:10423200436F6D706C6578204D6F6465002020457A
:1042420071756174696F6E204D6F646500313A61FA
:104252006E582B626E593D636E00323A61585E327F
:104262002B62582B633D3000333A616E582B626EDD
:10427200592B636E5A3D646E002020204D6174728A
:104282006978204D6F646500202020566563746F45
:1042920072204D6F6465002020205461626C65209D
:1042A2004D6F64650058313D0058323D00583D0065
:1042B200593D00000000000000000000010202035E
:1042C20003030304040404040404040505050505AA
:1042D2000505050505050505050505060606060687
:1042E200060606060606060606060606060606066C
:1042F2000606060606060606060606070707070757
:10430200070707070707070707070707070707073B
:10431200070707070707070707070707070707072B
:10432200070707070707070707070707070707071B
:104332000707070707070707070707080808080806
:1043420008080808080808080808080808080808EB
:1043520008080808080808080808080808080808DB
:1043620008080808080808080808080808080808CB
:1043720008080808080808080808080808080808BB
:1043820008080808080808080808080808080808AB
:10439200080808080808080808080808080808089B
:1043A200080808080808080808080808080808088B
:1043B200080808080808080808080877078109108B
:0843C2000ADA0A690BF80B008E
:00000001FF
