:100000000C942A000C9447000C9447000C94470071
:100010000C9447000C9447000C9447000C94470044
:100020000C9447000C9447000C9447000C94470034
:100030000C9447000C9447000C9447000C94470024
:100040000C9447000C9447000C9447000C94470014
:100050000C94470011241FBECFE5D8E0DEBFCDBF12
:1000600012E0A0E6B0E0E4EBF2E402C005900D92ED
:10007000A63BB107D9F713E0A6EBB2E001C01D9291
:10008000AE34B107E1F70E94FC060C9458210C94A1
:100090000000EF92FF920F931F937B018C0120E0F1
:1000A00030E040E05FE40E94F50388238CF0C80153
:1000B000B70120E030E040E05FE40E94C1010E940F
:1000C000B3049B01AC01205030404040504806C072
:1000D000C801B7010E94B3049B01AC01B901CA0178
:1000E0001F910F91FF90EF900895A0E0B0E0EBE733
:1000F000F0E00C943820DC012B01FA019C91923045
:1001000008F439C1EB018881823008F433C194309E
:1001100069F4843009F02FC111969C91119789815F
:10012000981709F428C1A1EAB1E025C1843009F487
:1001300021C18230A9F4923009F01DC19A01AD01AC
:1001400088E0EA010990AE01E90109929E0181501F
:10015000C1F7E201898111969C918923818308C1AD
:10016000923009F407C112962D903C901397EB0141
:100170008A819B811496AD90BD90CD90DC901797AD
:10018000EC80FD800E811F819101281B390BB90184
:1001900037FF04C066277727621B730B6032710537
:1001A0000CF061C0121613066CF537014801062EDB
:1001B00004C096948794779467940A94D2F721E0C8
:1001C00030E040E050E004C0220F331F441F551FB1
:1001D0006A95D2F721503040404050402E213F21B7
:1001E00040235123211531054105510521F021E01E
:1001F00030E040E050E079018A01E628F72808293C
:1002000019293CC0232BD1F1260E371E350146019A
:10021000062E04C096948794779467940A94D2F734
:1002200021E030E040E050E004C0220F331F441FC3
:10023000551F6A95D2F721503040404050402A2146
:100240003B214C215D21211531054105510521F04E
:1002500021E030E040E050E059016A01A628B728CB
:10026000C828D9280BC0821593052CF01C01AA249C
:10027000BB24650103C0EE24FF24870111969C91E5
:10028000D20111968C91981709F445C0992339F041
:10029000A80197012A193B094C095D0906C0A6016E
:1002A00095012E193F09400B510B57FD08C01182D3
:1002B0003382228224833583468357831DC081E0A5
:1002C00081833382228288279927DC01821B930B4A
:1002D000A40BB50B84839583A683B7830DC0220F2F
:1002E000331F441F551F24833583468357838281E0
:1002F000938101979383828324813581468157813D
:10030000DA01C9010197A109B1098F5F9F4FAF4F72
:10031000BF4328F30BC0918333822282EA0CFB1C7B
:100320000C1D1D1DE482F5820683178383E0808304
:10033000248135814681578157FF1AC0C901AA27F8
:1003400097FDA095BA2F81709070A070B0705695EF
:10035000479537952795822B932BA42BB52B848318
:100360009583A683B7838281938101969383828349
:10037000DF0101C0D201CD01CDB7DEB7E2E10C94BF
:100380005420A0E2B0E0E7ECF1E00C944420698353
:100390007A838B839C832D833E834F835887E9E048
:1003A000EE2EF12CEC0EFD1ECE010196B7010E943F
:1003B0002B068E010F5E1F4FCE010596B8010E94DD
:1003C0002B068A8991E089278A8BC701B801AE0183
:1003D000475E5F4F0E9475000E945605A096E6E0BA
:1003E0000C946020A0E2B0E0E8EFF1E00C9444202F
:1003F00069837A838B839C832D833E834F835887C5
:10040000F9E0EF2EF12CEC0EFD1ECE010196B701A6
:100410000E942B068E010F5E1F4FCE010596B8017C
:100420000E942B06C701B801AE01475E5F4F0E94D4
:1004300075000E945605A096E6E00C946020A0E2AC
:10044000B0E0E5E2F2E00C94382069837A838B8394
:100450009C832D833E834F835887CE010196BE0136
:10046000675F7F4F0E942B06CE010596BE016F5E2F
:100470007F4F0E942B069985923088F089898230BF
:10048000C8F0943019F4823051F404C0843029F457
:10049000923081F481EA91E0C6C0923049F420E0C4
:1004A0009A858A89981321E02A87CE010996BBC0D4
:1004B000823049F420E09A858A89981321E02A8BBA
:1004C000CE014196B0C02D843E844F8458886D88FB
:1004D0007E888F88988CEE24FF248701AA24BB2471
:1004E000650140E050E060E070E0E0E0F0E0C10174
:1004F00081709070892BE9F0E60CF71C081D191D1E
:100500009A01AB012A0D3B1D4C1D5D1D80E090E062
:10051000A0E0B0E0E614F7040805190520F481E036
:1005200090E0A0E0B0E0BA01A901480F591F6A1F8E
:100530007B1FAA0CBB1CCC1CDD1C97FE08C081E0F5
:1005400090E0A0E0B0E0A82AB92ACA2ADB2A3196B6
:10055000E032F10549F0660C771C881C991C569412
:10056000479437942794C3CFFA85EA892B893C892D
:100570008B859C85280F391F2E5F3F4F17C0CA01FE
:1005800081709070892B61F016950795F794E79428
:1005900080E090E0A0E0B0E8E82AF92A0A2B1B2BC3
:1005A00076956795579547952F5F3F4F77FDE7CF36
:1005B0000CC0440F551F661F771F17FD4160EE0CDE
:1005C000FF1C001F111F21503040403090E05907A0
:1005D00090E0690790E4790760F32B8F3C8FDB0193
:1005E000CA018F779070A070B07080349105A1051A
:1005F000B10561F447FD0AC0E114F10401051105DC
:1006000029F0405C5F4F6F4F7F4F40781A8EFE1786
:1006100011F081E08A8F4D8F5E8F6F8F78A383E01A
:10062000898FCE0149960E945605A096E2E10C946E
:100630005420A8E1B0E0EFE1F3E00C94402069839E
:100640007A838B839C832D833E834F835887B9E0C5
:10065000EB2EF12CEC0EFD1ECE010196B7010E948F
:100660002B068E010F5E1F4FCE010596B8010E942A
:100670002B062985223008F47EC03989323010F4E7
:10068000B8017CC08A859A8989278A87243011F02D
:10069000223031F4231709F06EC061EA71E06EC0B8
:1006A000343039F41D861E861F86188A1C861B86E8
:1006B00004C0323021F484E08987B7015FC02B8504
:1006C0003C858B899C89281B390B3C872B87ED84C3
:1006D000FE840F851889AD88BE88CF88D88CEA142F
:1006E000FB040C051D0540F4EE0CFF1C001F111F40
:1006F000215030403C872B8720E030E040E050E044
:1007000080E090E0A0E0B0E460E070E0EA14FB0478
:100710000C051D0540F0282B392B4A2B5B2BEA18C2
:10072000FB080C091D09B695A79597958795EE0CC2
:10073000FF1C001F111F6F5F7F4F6F31710531F775
:10074000DA01C9018F779070A070B0708034910584
:10075000A105B10561F427FD0AC0E114F10401050A
:10076000110529F0205C3F4F4F4F5F4F20782D87B8
:100770003E874F87588BBE01675F7F4FCB010E943A
:1007800056056896EAE00C945C20A8E1B0E0EBEC3A
:10079000F3E00C94442069837A838B839C832D83BC
:1007A0003E834F83588789E0E82EF12CEC0EFD1E26
:1007B000CE010196B7010E942B068E010F5E1F4FDE
:1007C000CE010596B8010E942B068985823040F043
:1007D0008989823028F0C701B8010E94A30601C0B0
:1007E0008FEF6896E6E00C946020A8E1B0E0EBEFB4
:1007F000F3E00C94442069837A838B839C832D835C
:100800003E834F83588789E0E82EF12CEC0EFD1EC5
:10081000CE010196B7010E942B068E010F5E1F4F7D
:10082000CE010596B8010E942B068985823040F0E2
:100830008989823028F0C701B8010E94A30601C04F
:100840008FEF6896E6E00C946020A8E1B0E0EBE260
:10085000F4E00C94442069837A838B839C832D83FA
:100860003E834F83588789E0E82EF12CEC0EFD1E65
:10087000CE010196B7010E942B068E010F5E1F4F1D
:10088000CE010596B8010E942B068985823040F082
:100890008989823028F0C701B8010E94A30601C0EF
:1008A00081E06896E6E00C946020A8E0B0E0EBE51B
:1008B000F4E00C9441209B01AC0183E08983DA01D0
:1008C000C9018827B7FD83959927AA27BB27B82E8A
:1008D000211531054105510519F482E089833AC09B
:1008E0008823A9F0203080E0380780E0480780E8BE
:1008F000580729F460E070E080E09FEC30C0EE24FF
:10090000FF248701E21AF30A040B150B02C07901D8
:100910008A018EE1C82ED12CDC82CB82ED82FE8250
:100920000F831887C801B7010E94070501971816A1
:10093000190684F4082E04C0EE0CFF1C001F111FC2
:100940000A94D2F7ED82FE820F831887C81AD90A5B
:10095000DC82CB82BA82CE0101960E94560528968F
:10096000E9E00C945D20ACE0B0E0E9EBF4E00C943D
:10097000482069837A838B839C83CE010196BE01D4
:100980006B5F7F4F0E942B068D81823061F1823038
:1009900050F1843021F48E81882351F12EC02F81B3
:1009A000388537FD20C06E812F3131051CF066235C
:1009B000F9F023C08EE190E0821B930B29853A85E4
:1009C0004B855C8504C056954795379527958A9544
:1009D000D2F76623B1F050954095309521953F4F61
:1009E0004F4F5F4F0EC020E030E040E050E009C0C4
:1009F0002FEF3FEF4FEF5FE704C020E030E040E033
:100A000050E8B901CA012C96E2E00C946420EF9200
:100A1000FF920F931F937B018C0180E0E81680E02A
:100A2000F80681E0080780E0180788F48FEFE816E1
:100A3000F1040105110531F028F088E090E0A0E014
:100A4000B0E017C080E090E0A0E0B0E012C080E02D
:100A5000E81680E0F80680E0080781E0180728F033
:100A600088E190E0A0E0B0E004C080E190E0A0E088
:100A7000B0E020E230E040E050E0281B390B4A0BA8
:100A80005B0B04C016950795F794E7948A95D2F707
:100A9000F701E755FE4F8081281B310941095109B3
:100AA000C9011F910F91FF90EF900895DF92EF928F
:100AB000FF920F931F93FC01E480F580068117815C
:100AC000D1808081823048F480E090E0A0E1B0E005
:100AD000E82AF92A0A2B1B2BA5C0843009F49FC0F1
:100AE000823021F4EE24FF24870105C0E114F104D3
:100AF0000105110519F4E0E0F0E096C06281738110
:100B00009FEF623879070CF05BC022E83FEF261BAD
:100B1000370B2A3131052CF020E030E040E050E086
:100B20002AC0B801A701022E04C076956795579593
:100B300047950A94D2F781E090E0A0E0B0E004C0CD
:100B4000880F991FAA1FBB1F2A95D2F70197A109E9
:100B5000B1098E219F21A023B1230097A105B105E2
:100B600021F081E090E0A0E0B0E09A01AB01282BF9
:100B7000392B4A2B5B2BDA01C9018F779070A0705B
:100B8000B07080349105A105B10539F427FF09C083
:100B9000205C3F4F4F4F5F4F04C0215C3F4F4F4F92
:100BA0005F4FE0E0F0E02030A0E03A07A0E04A0725
:100BB000A0E45A0710F0E1E0F0E079018A0127C0D3
:100BC0006038710564F5FB01E158FF4FD801C7019A
:100BD0008F779070A070B07080349105A105B10539
:100BE00039F4E7FE0DC080E490E0A0E0B0E004C07E
:100BF0008FE390E0A0E0B0E0E80EF91E0A1F1B1F93
:100C000017FF05C016950795F794E794319687E08E
:100C100016950795F794E7948A95D1F705C0EE24C9
:100C2000FF248701EFEFF0E06E2F67956627679549
:100C3000902F9F77D794DD24D7948E2F8695492FB8
:100C4000462B582F5D29B701CA011F910F91FF90C4
:100C5000EF90DF900895FC01DB01408151812281FA
:100C6000622F6F7770E0221F2227221F9381892F26
:100C7000880F822B282F30E0991F9927991F1196F2
:100C80009C93119721153105A9F541155105610571
:100C9000710511F482E037C082E89FEF13969C93B0
:100CA0008E9312979A01AB0167E0220F331F441F06
:100CB000551F6A95D1F783E08C930DC0220F331F27
:100CC000441F551F12968D919C911397019713966F
:100CD0009C938E931297203080E0380780E048077D
:100CE00080E4580758F314962D933D934D935C93ED
:100CF000179708952F3F310579F441155105610586
:100D0000710519F484E08C93089564FF03C081E0B9
:100D10008C9312C01C9210C02F57304013963C93F6
:100D20002E93129783E08C9387E0440F551F661F24
:100D3000771F8A95D1F7706414964D935D936D93E8
:100D40007C93179708951F93DC01FB019C919230CF
:100D500008F447C08081823008F443C0943051F4D5
:100D600011961C91843099F58181682F70E0611B88
:100D700071093FC0843021F0923031F48230B9F1F2
:100D80008181882389F12DC011961C9111978230A1
:100D9000F1F081811817D9F412962D913C91139797
:100DA000828193818217930794F028173907BCF04A
:100DB00014968D919D910D90BC91A02D248135812B
:100DC00046815781281739074A075B0718F4112312
:100DD00041F00AC082179307A407B50740F4112316
:100DE00019F061E070E005C06FEF7FEF02C060E0D6
:100DF00070E0CB011F910895DF93CF930F92CDB791
:100E0000DEB70E94DF1A0E940A07898389810E9447
:100E10003707F9CFDF93CF930F92CDB7DEB70E949C
:100E2000072080E690E00E94591F81E060E00E9468
:100E3000891F8DE690E00E94591F82E060E00E94C9
:100E4000891F8DE790E00E94591F83E060E00E94B7
:100E5000891F8CE890E00E94591F81E066E00E94A3
:100E60007B07898389810F90CF91DF910895DF936C
:100E7000CF93CDB7DEB762970FB6F894DEBF0FBE43
:100E8000CDBF8D87CE0101969F878E87E9EAF2E07C
:100E9000F98BE88BFCE0FA8BE889F9890080888976
:100EA00099890196998B888BEE85FF8500828E85C6
:100EB0009F8501969F878E879A8991509A8BEA89A0
:100EC000EE2351F78D85882F90E001979C01220F2A
:100ED000331FCE010196FC01E20FF31F0190F08158
:100EE000E02D099562960FB6F894DEBF0FBECDBF18
:100EF000CF91DF910895DF93CF93CDB7DEB76197A0
:100F00000FB6F894DEBF0FBECDBF888B698B0E94F1
:100F1000CA198F8780E090E0AAEFB3E48B879C87A3
:100F2000AD87BE876B857C858D859E8520E030E012
:100F30004AE753E40E941F02DC01CB018F839887AC
:100F4000A987BA876F81788589859A8520E030E006
:100F500040E85FE30E94250488232CF481E090E0C0
:100F60009E838D833FC06F81788589859A8520E037
:100F70003FEF4FE757E40E94C50318164CF56B8509
:100F80007C858D859E8520E030E040E251E40E9422
:100F90001F02DC01CB01BC01CD010E944900DC0134
:100FA000CB019E838D830FC089E190E09C838B836E
:100FB0008B819C810197F1F79C838B838D819E812E
:100FC00001979E838D838D819E81009769F714C060
:100FD0006F81788589859A850E944900DC01CB0163
:100FE0009E838D838D819E819A83898389819A8155
:100FF0000197F1F79A8389839F858989891708F476
:1010000086CF9F858889981708F481CF8F85619650
:101010000FB6F894DEBF0FBECDBFCF91DF9108951C
:101020000F931F93DF93CF93CDB7DEB7CC58D0404B
:101030000FB6F894DEBF0FBECDBF1D8E1C8E1B8E6B
:101040008AE0FE017F96DF01982F1D929A95E9F7BD
:1010500080E090E0A0E0B0E08E8B9F8BA88FB98FEE
:1010600080E090E0A0E8BFE38A8B9B8BAC8BBD8BCC
:1010700080E090E0ACE2B2E489A79AA7ABA7BCA756
:101080008BE2898B188A0E9407208CE990E00E94ED
:10109000591F81E060E00E94891F0E94CA198E8F4B
:1010A0008E8D0E94B60B8A8F8889803121F482E070
:1010B00060E00E94891F8E8D8D3009F4AFC18A8D4A
:1010C0008823A1F48E8D805D0E946A1D8B8D282F50
:1010D00030E08E8D482F405DCE014F96FC01E20F2F
:1010E000F31F40838B8D8F5F8B8F6BC08B8D282F71
:1010F00030E0CE014F96FC01E20FF31F10821B8EF1
:101100008C8D082F10E0CE014F960E946F20DC01DD
:10111000CB01BC01CD010E945504AB01BC0198017B
:10112000220F331F220F331FCE010196820F931F10
:10113000FC01B896408351836283738389898D3221
:1011400039F58C8D082F10E08C8D882F90E09C0154
:10115000220F331F220F331FCE010196820F931FE0
:10116000FC01B89680819181A281B381AC01BD015F
:1011700070589801220F331F220F331FCE010196A2
:10118000820F931FFC01B89640835183628373835F
:101190008C8D8F5F8C8F8E8D898B8E8D8D3389F0AA
:1011A0008D8D282F30E0CE0187589F4FFC01E20F34
:1011B000F31F8E8D80838D8D8F5F8D8F8E8D0E941E
:1011C0006A1D80E090E0AAEFB3E48B879C87AD872F
:1011D000BE876B857C858D859E8520E030E04AE763
:1011E00053E40E941F02DC01CB018F839887A987FB
:1011F000BA876F81788589859A8520E030E040E85C
:101200005FE30E94250488232CF481E090E09E8314
:101210008D833FC06F81788589859A8520E03FEF77
:101220004FE757E40E94C50318164CF56B857C8583
:101230008D859E8520E030E040E251E40E941F024F
:10124000DC01CB01BC01CD010E944900DC01CB01D6
:101250009E838D830FC089E190E09C838B838B817B
:101260009C810197F1F79C838B838D819E810197EF
:101270009E838D838D819E81009769F714C06F8155
:10128000788589859A850E944900DC01CB019E837F
:101290008D838D819E819A83898389819A8101972B
:1012A000F1F79A83898388898F5F888B8E8D8D3340
:1012B00009F0F3CE1F8695C08F85882F90E09C01A2
:1012C000220F331F220F331FCE010196820F931F6F
:1012D000FC01B89680819181A281B3818A8B9B8B1E
:1012E000AC8BBD8B80E20E946A1D4EC08F85282F7B
:1012F00030E0CE0187589F4FFC01E20FF31F808141
:101300008A3201F58F85882F90E001969C01220F8B
:10131000331F220F331FCE010196820F931FFC0152
:10132000B89620813181428153816A897B898C8979
:101330009D890E941F02DC01CB018A8B9B8BAC8BA9
:10134000BD8B1FC08F85882F90E001969C01220FD6
:10135000331F220F331FCE010196820F931FFC0112
:10136000B89620813181428153816A897B898C8939
:101370009D890E941903DC01CB018A8B9B8BAC8B6E
:10138000BD8B8F858F5F8F878F85282F30E0CE01B3
:1013900087589F4FFC01E20FF31F80818A3209F4C6
:1013A000A5CF8F85282F30E0CE0187589F4FFC01B5
:1013B000E20FF31F8081853209F498CF6E897F890F
:1013C000888D998D2A893B894C895D890E94F2011B
:1013D000DC01CB018E8B9F8BA88FB98F8F858F5FA0
:1013E0008F879F858D8D891708F066CF83E060E039
:1013F0000E94891F8BEA90E00E94591F6E897F89A5
:10140000888D998D0E94B304DC01CB010E94E41FFA
:101410000E94CA198E8F8E8D8D30D1F7C457DF4F41
:101420000FB6F894DEBF0FBECDBFCF91DF911F91F5
:101430000F910895DF93CF930F92CDB7DEB70E943F
:1014400007208DEA90E00E94591F81E060E00E9431
:10145000891F0E94CA19898389818D30D1F70F9025
:10146000CF91DF910895DF93CF9300D00F92CDB746
:10147000DEB70E9407208DEB90E00E94591F81E0AB
:1014800060E00E94891F8DEC90E00E94591F82E06D
:1014900060E00E94891F8AED90E00E94591F83E05E
:1014A00060E00E94891F88EE90E00E94591F81E051
:1014B00063E00E947B0789838981282F30E03B838A
:1014C0002A838A819B818230910569F02A813B8140
:1014D0002330310559F08A819B818130910541F497
:1014E0000E94700E05C00E94C90B02C00E94BC0E73
:1014F0000F900F900F90CF91DF910895DF93CF93CE
:10150000CDB7DEB763970FB6F894DEBF0FBECDBF81
:101510001F860E94072089EF90E00E94591F81E0FA
:1015200060E00E94891F87E091E00E94591F81E0DE
:101530006AE00E94891F8EE091E00E94591F82E0BC
:1015400060E00E94891F84E191E00E94591F82E0BF
:101550006AE00E94891F8BE191E00E94591F83E09D
:1015600060E00E94891F81E291E00E94591F83E0A0
:101570006AE00E94891F88E291E00E94591F0E9440
:10158000CA198B8B8B89882F90E08130910511F4DB
:101590000E9423148B898D3009F0BBCF0E94072055
:1015A000198A34C0898960E00E94891F188A28C07E
:1015B0008889282F30E0C901880F991F880F991F4B
:1015C000820F931F982F8989692F0E94891F8F8509
:1015D000882F90E0880F991F880F991FFC01EA540B
:1015E000FD4F80819181A281B381BC01CD010E9418
:1015F000B304DC01CB010E94E41F88898F5F888BD4
:1016000088898330A8F289898F5F898B89898330A3
:1016100048F280E090E4ACE9B5E48B879C87AD8725
:10162000BE876B857C858D859E8520E030E04AE70E
:1016300053E40E941F02DC01CB018F839887A987A6
:10164000BA876F81788589859A8520E030E040E807
:101650005FE30E94250488232CF481E090E09E83C0
:101660008D833FC06F81788589859A8520E03FEF23
:101670004FE757E40E94C50318164CF56B857C852F
:101680008D859E8520E030E040E251E40E941F02FB
:10169000DC01CB01BC01CD010E944900DC01CB0182
:1016A0009E838D830FC089E190E09C838B838B8127
:1016B0009C810197F1F79C838B838D819E8101979B
:1016C0009E838D838D819E81009769F714C06F8101
:1016D000788589859A850E944900DC01CB019E832B
:1016E0008D838D819E819A83898389819A810197D7
:1016F000F1F79A83898363960FB6F894DEBF0FBE25
:10170000CDBFCF91DF910895DF93CF930F92CDB7E7
:10171000DEB70E9407208FE291E00E94591F81E00E
:1017200060E00E94891F0E94CA19898389818D30D7
:10173000D1F70F90CF91DF910895DF93CF930F9260
:10174000CDB7DEB70E9407208EE391E00E94591FBB
:1017500081E060E00E94891F0E94CA198983898103
:101760008D30D1F70F90CF91DF910895DF93CF9314
:1017700000D0CDB7DEB7898389818A3010F41A8210
:1017800002C081E08A838A810F900F90CF91DF9110
:101790000895EF92FF920F931F93DF93CF93CDB7EE
:1017A000DEB7EF970FB6F894DEBF0FBECDBF198A34
:1017B0008BE2888B8AE0FE01F496DF01282F1D92D0
:1017C0002A95E9F70E9407201B8A3AC18B8960E0BD
:1017D0000E94891F8B898F590E946A1D8AE30E948B
:1017E0006A1D8BE2888B0E94CA198A8B8A890E94A3
:1017F000B60B8F878A898D3009F465C28F8588235F
:10180000A1F48A89805D0E946A1D8989282F30E0B1
:101810008A89482F405DCE01C496FC01E20FF31F78
:10182000408389898F5F898B08C08A898D3329F02D
:101830008A890E946A1D8A89888B80E090E0AAEFDD
:10184000B3E48B879C87AD87BE876B857C858D8550
:101850009E8520E030E04AE753E40E941F02DC014D
:10186000CB018F839887A987BA876F81788589850F
:101870009A8520E030E040E85FE30E942504882359
:101880002CF481E090E09E838D833FC06F8178854A
:1018900089859A8520E03FEF4FE757E40E94C50312
:1018A00018164CF56B857C858D859E8520E030E093
:1018B00040E251E40E941F02DC01CB01BC01CD01DA
:1018C0000E944900DC01CB019E838D830FC089E11A
:1018D00090E09C838B838B819C810197F1F79C83A3
:1018E0008B838D819E8101979E838D838D819E81C7
:1018F000009769F714C06F81788589859A850E9461
:101900004900DC01CB019E838D838D819E819A836A
:10191000898389819A810197F1F79A8389838A89DA
:101920008D3309F060CF8B89A82FB0E0BFAFAEAF89
:101930002EAD3FAD2130310599F18EAD9FAD823096
:10194000910509F454C0AEADBFAD109709F075C054
:101950008989282F30E0CE01C496FC01E20FF31FE5
:101960001082198ACE01C4960E946F20DC01CB013F
:10197000BC01CD010E945504DC01CB0188AB99ABC1
:10198000AAABBBAB88898D3209F057C088A999A949
:10199000AAA9BBA9B05888AB99ABAAABBBAB4DC049
:1019A0008989282F30E0CE01C496FC01E20FF31F95
:1019B0001082198ACE01C4960E946F20DC01CB01EF
:1019C000BC01CD010E945504DC01CB018CA79DA771
:1019D000AEA7BFA788898D3281F58CA59DA5AEA540
:1019E000BFA5B0588CA79DA7AEA7BFA726C0898961
:1019F000282F30E0CE01C496FC01E20FF31F1082C5
:101A0000198ACE01C4960E946F20DC01CB01BC0173
:101A1000CD010E945504DC01CB0188A799A7AAA794
:101A2000BBA788898D3249F488A599A5AAA5BBA52D
:101A3000B05888A799A7AAA7BBA78B898F5F8B8B64
:101A40008B89833008F4C2CE6CA57DA58EA59FA599
:101A50002CA53DA54EA55FA50E941F02DC01CB0170
:101A60007C018D0168A979A98AA99BA920E030E0B1
:101A700040E850EC0E941F02DC01CB01BC01CD010B
:101A800028A539A54AA55BA50E941F02DC01CB0150
:101A90009C01AD01C801B7010E94F201DC01CB013C
:101AA0008C8F9D8FAE8FBF8F0E9407206C8D7D8D98
:101AB0008E8D9F8D20E030E040E050E00E94F503E5
:101AC00088230CF47FC08C8D9D8DAE8DBF8DBC01A5
:101AD000CD010E94D020DC01CB01BC01CD012CA5A1
:101AE0003DA54EA55FA50E94C101DC01CB017C0193
:101AF0008D0128A939A94AA95BA9CA01B9010E9487
:101B0000F201DC01CB019C01AD01C801B7010E94CB
:101B10001903DC01CB018CA39DA3AEA3BFA38CA5AD
:101B20009DA5AEA5BFA57C018D0117FB109517F9EA
:101B300010958C8D9D8DAE8DBF8DBC01CD010E9409
:101B4000D0209B01AC01C801B7010E94C101DC019A
:101B5000CB017C018D0128A939A94AA95BA9CA0139
:101B6000B9010E94F201DC01CB019C01AD01C80169
:101B7000B7010E941903DC01CB0188A399A3AAA392
:101B8000BBA38CE491E00E94591F6CA17DA18EA1A2
:101B90009FA10E94B304DC01CB010E94E41F81E0FD
:101BA00060E00E94891F80E591E00E94591F68A1B2
:101BB00079A18AA19BA10E94B304DC01CB010E9400
:101BC000E41F7BC068A979A98AA99BA920E030E01D
:101BD00040E050EC0E941F02DC01CB019C01AD01F2
:101BE0006CA57DA58EA59FA50E941903DC01CB01E4
:101BF000888F998FAA8FBB8F8C8D9D8DAE8DBF8D59
:101C0000B058BC01CD010E94D0207B018C0128A9D5
:101C100039A94AA95BA9CA01B9010E94F201DC01F4
:101C2000CB019C01AD01C801B7010E941903DC0181
:101C3000CB018C8B9D8BAE8BBF8B8CE491E00E9493
:101C4000591F688D798D8A8D9B8D0E94B304DC01AC
:101C5000CB010E94E41F8BE20E946A1D6C897D8982
:101C60008E899F890E94B304DC01CB010E94E41F8E
:101C700089E60E946A1D81E060E00E94891F80E57C
:101C800091E00E94591F688D798D8A8D9B8D0E94ED
:101C9000B304DC01CB010E94E41F8DE20E946A1DA7
:101CA0006C897D898E899F890E94B304DC01CB01F8
:101CB0000E94E41F89E60E946A1D0E94CA198A8B4D
:101CC0008A898D30D1F7EF960FB6F894DEBF0FBE3C
:101CD000CDBFCF91DF911F910F91FF90EF900895AD
:101CE000DF93CF93CDB7DEB7A1970FB6F894DEBFE1
:101CF0000FBECDBFCE01029662E00E941C0FCE0146
:101D000002969E01265E3F4FB9010E9486100E94F6
:101D1000072084E591E00E94591F8A8D9B8DAC8D30
:101D2000BD8DBC01CD010E94B304DC01CB010E943A
:101D3000E41F81E060E00E94891F87E591E00E9436
:101D4000591F8E8D9F8DA8A1B9A1BC01CD010E9404
:101D5000B304DC01CB010E94E41F0E94CA198983ED
:101D600089818D30D1F7A1960FB6F894DEBF0FBEF2
:101D7000CDBFCF91DF910895DF93CF93CDB7DEB77D
:101D8000ED970FB6F894DEBF0FBECDBFCE01029621
:101D900063E00E941C0FCE0102969E012E5C3F4F15
:101DA000B9010E9465110E94072084E591E00E941C
:101DB000591F8AA99BA9ACA9BDA9BC01CD010E944C
:101DC000B304DC01CB010E94E41F81E060E00E94CB
:101DD000891F87E591E00E94591F8EA99FA9A8AD90
:101DE000B9ADBC01CD010E94B304DC01CB010E945E
:101DF000E41F82E060E00E94891F8AE591E00E9472
:101E0000591F8AAD9BADACADBDADBC01CD010E94EB
:101E1000B304DC01CB010E94E41F0E94CA1989832C
:101E200089818D30D1F7ED960FB6F894DEBF0FBEE5
:101E3000CDBFCF91DF9108950F931F93DF93CF9381
:101E4000CDB7DEB7A2970FB6F894DEBF0FBECDBFF9
:101E500099A388A36AA31C8A1A8A8BE2898B8AE0D9
:101E6000FE017696DF01482F1D924A95E9F78AA177
:101E7000282F30E08AA1882F90E00196DC012A9F6C
:101E8000C0012B9F900D3A9F900D1124888B1D8AC5
:101E90002DC18D89482F50E08AA1882F90E09C01A8
:101EA0002F5F3F4FCA01B9010E941120009729F40A
:101EB0000E9407208C898F5F8C8B8D89482F50E082
:101EC0008AA1882F90E09C012F5F3F4FCA01B90182
:101ED0000E94112060E00E94891F8D89482F50E0E8
:101EE0008AA1882F90E09C012F5F3F4FCA01B90162
:101EF0000E9411208F590E946A1D8C89805D0E946A
:101F00006A1D8AE30E946A1D0E94CA198B8B8B8905
:101F10000E94B60B8F878B898D3009F4ECC08F85BA
:101F20008823A1F48B89805D0E946A1D8A89282FED
:101F300030E08B89482F405DCE014696FC01E20FD0
:101F4000F31F40838A898F5F8A8B08C08B898D330A
:101F500029F08B890E946A1D8B89898B80E090E033
:101F6000AAEFB3E48B879C87AD87BE876B857C85A2
:101F70008D859E8520E030E04AE753E40E941F02F1
:101F8000DC01CB018F839887A987BA876F81788519
:101F900089859A8520E030E040E85FE30E942504CF
:101FA00088232CF481E090E09E838D833FC06F8175
:101FB000788589859A8520E03FEF4FE757E40E94B6
:101FC000C50318164CF56B857C858D859E8520E0B4
:101FD00030E040E251E40E941F02DC01CB01BC0171
:101FE000CD010E944900DC01CB019E838D830FC08F
:101FF00089E190E09C838B838B819C810197F1F731
:102000009C838B838D819E8101979E838D838D819F
:102010009E81009769F714C06F81788589859A85BC
:102020000E944900DC01CB019E838D838D819E81BE
:102030009A83898389819A810197F1F79A838983A9
:102040008B898D3309F060CF8A89282F30E0CE014B
:102050004696FC01E20FF31F10821A8A8D89882FA1
:1020600090E09C01220F331F220F331F88A199A1FA
:102070008C01020F131FCE0146960E946F20DC01D7
:10208000CB01BC01CD010E945504DC01CB01F8015C
:1020900080839183A283B38389898D3221F58D89D1
:1020A000882F90E09C01220F331F220F331F88A13D
:1020B00099A1AC01420F531F8D89882F90E09C019C
:1020C000220F331F220F331F88A199A1FC01E20FB9
:1020D000F31F80819181A281B381B058FA0180837E
:1020E0009183A283B3838D898F5F8D8B9D8988892E
:1020F000981708F4CECEA2960FB6F894DEBF0FBEA6
:10210000CDBFCF91DF911F910F910895EF92FF9274
:102110000F931F93DF93CF93CDB7DEB7A0970FB682
:10212000F894DEBF0FBECDBF9E8F8D8F78A36F8FCB
:10213000ED8DFE8D80819181A281B381898F9A8FEF
:10214000AB8FBC8F8D8D9E8DFC01349680819181EB
:10215000A281B3818D8B9E8BAF8BB88F8D8D9E8D21
:10216000FC01389680819181A281B381898B9A8B01
:10217000AB8BBC8B8D8D9E8DFC013C9680819181BB
:10218000A281B3818D879E87AF87B88B8D8D9E8D01
:10219000FC01709680819181A281B38189879A87A1
:1021A000AB87BC878D8D9E8DFC017496808191815B
:1021B000A281B3818D839E83AF83B887698D7A8D29
:1021C0008B8D9C8D2D853E854F8558890E941903E6
:1021D000DC01CB0189839A83AB83BC8369817A81DB
:1021E0008B819C812D813E814F8158850E941F02E9
:1021F000DC01CB019C01AD0169897A898B899C89BD
:102200000E94C101DC01CB017C018D0169817A81D1
:102210008B819C8129853A854B855C850E941F02B4
:10222000DC01CB019C01AD016D897E898F89988D80
:102230000E94C101DC01CB019C01AD01C801B701C5
:102240000E941903DC01CB01EF8DF8A180839183FB
:10225000A283B3838F8D98A18C010C5F1F4FEF8DEC
:10226000F8A180819181A281B381BC01CD012D892A
:102270003E894F89588D0E941F02DC01CB019C01D1
:10228000AD0169897A898B899C890E94C101DC0131
:10229000CB01BC01CD01298D3A8D4B8D5C8D0E9407
:1022A0001903DC01CB01F80180839183A283B383FE
:1022B000A0960FB6F894DEBF0FBECDBFCF91DF91D1
:1022C0001F910F91FF90EF900895CF92DF92EF92C0
:1022D000FF920F931F93DF93CF93CDB7DEB7C05517
:1022E000D0400FB6F894DEBF0FBECDBFFE01E35B5A
:1022F000FF4F91838083FE01E15BFF4F7183608319
:102300009E01275B3F4FFE01E35BFF4F0190F08191
:10231000E02D80819181A281B381F9018083918335
:10232000A283B383FE01E35BFF4F80819181FC01B7
:1023300034969E012B5B3F4F80819181A281B381B6
:10234000F90180839183A283B383FE01E35BFF4F96
:1023500080819181FC0138969E012F5B3F4F8081E7
:102360009181A281B381F90180839183A283B38398
:10237000FE01E35BFF4F80819181FC013C968081EF
:102380009181A281B381FE01FD9680839183A28316
:10239000B383FE01E35BFF4F80819181FC01709666
:1023A00080819181A281B38189AF9AAFABAFBCAF7D
:1023B000FE01E35BFF4F80819181FC017496808177
:1023C0009181A281B3818DAB9EABAFABB8AFFE0163
:1023D000E35BFF4F80819181FC0178968081918140
:1023E000A281B38189AB9AABABABBCABFE01E35B23
:1023F000FF4F80819181FC017C9680819181A28137
:10240000B3818DA79EA7AFA7B8ABFE01E35BFF4FDB
:1024100080819181FC01B09680819181A281B381FC
:1024200089A79AA7ABA7BCA7FE01E35BFF4F8081FA
:102430009181FC01B49680819181A281B3818DA3A9
:102440009EA3AFA3B8A7FE01E35BFF4F80819181FC
:10245000FC01B89680819181A281B38189A39AA35E
:10246000ABA3BCA3FE01E35BFF4F80819181FC0124
:10247000BC9680819181A281B3818D8F9E8FAF8F19
:10248000B8A3FE01E75BFF4F608171818281938178
:1024900029AD3AAD4BAD5CAD0E941903DC01CB0117
:1024A000BC01CD012DA93EA94FA958AD0E941F0224
:1024B000DC01CB019C01AD01FE01EB5BFF4F6081B4
:1024C0007181828193810E94C101DC01CB01898FDE
:1024D0009A8FAB8FBC8FFE01E75BFF4F60817181EC
:1024E0008281938129AD3AAD4BAD5CAD0E94190359
:1024F000DC01CB01BC01CD0129A93AA94BA95CA9FA
:102500000E941F02DC01CB019C01AD01FE01EF5BCB
:10251000FF4F60817181828193810E94C101DC0142
:10252000CB018D8B9E8BAF8BB88FFE01E75BFF4F8E
:10253000608171818281938129AD3AAD4BAD5CADF3
:102540000E941903DC01CB01BC01CD012DA53EA5E4
:102550004FA558A90E941F02DC01CB019C01AD01CF
:10256000FE01FD9660817181828193810E94C1018B
:10257000DC01CB01898B9A8BAB8BBC8B69AD7AADBF
:102580008BAD9CAD29A53AA54BA55CA50E9419036E
:10259000DC01CB01BC01CD012DA13EA14FA158A56D
:1025A0000E941F02DC01CB019C01AD016DA97EA937
:1025B0008FA998AD0E94C101DC01CB018D879E8758
:1025C000AF87B88B69AD7AAD8BAD9CAD29A53AA527
:1025D0004BA55CA50E941903DC01CB01BC01CD0118
:1025E00029A13AA14BA15CA10E941F02DC01CB01F1
:1025F0009C01AD0169A97AA98BA99CA90E94C1017E
:10260000DC01CB0189879A87AB87BC8769AD7AAD3E
:102610008BAD9CAD29A53AA54BA55CA50E941903DD
:10262000DC01CB01BC01CD012D8D3E8D4F8D58A11C
:102630000E941F02DC01CB019C01AD016DA57EA5AE
:102640008FA598A90E94C101DC01CB018D839E83D7
:10265000AF83B887698D7A8D8B8D9C8D2D853E8556
:102660004F8558890E941903DC01CB0189839A8325
:10267000AB83BC83FE01E15BFF4F80819181CC2461
:10268000DD246894C3F8C80ED91E69817A818B81D4
:102690009C812D813E814F8158850E941F02DC0163
:1026A000CB019C01AD0169897A898B899C890E9443
:1026B000C101DC01CB017C018D0169817A818B81B3
:1026C0009C8129853A854B855C850E941F02DC012F
:1026D000CB019C01AD016D897E898F89988D0E9407
:1026E000C101DC01CB019C01AD01C801B7010E9411
:1026F0001903DC01CB01F60180839183A283B383AC
:10270000FE01E15BFF4F808191818C010C5F1F4FC7
:10271000FE01E15BFF4F80819181FC013896808151
:102720009181A281B381BC01CD012D893E894F8960
:10273000588D0E941F02DC01CB019C01AD0169890B
:102740007A898B899C890E94C101DC01CB01BC0183
:10275000CD01298D3A8D4B8D5C8D0E941903DC01D2
:10276000CB01F80180839183A283B383FE01E15BF7
:10277000FF4F80819181FC01349680819181A281FB
:10278000B381FE01EB5BFF4FBC01CD0120813181A4
:10279000428153810E941F02DC01CB019C01AD01EB
:1027A000FE01FD9660817181828193810E94C10149
:1027B000DC01CB017C018D01FE01E15BFF4F8081DB
:1027C0009181FC01389680819181A281B381FE01C3
:1027D000EF5BFF4FBC01CD012081318142815381EC
:1027E0000E941F02DC01CB019C01AD01C801B701B1
:1027F0000E94C101DC01CB01FE01E75BFF4FBC0180
:10280000CD0120813181428153810E941903DC0175
:10281000CB01FE01E15BFF4F0190F081E02D808351
:102820009183A283B383C05BDF4F0FB6F894DEBF02
:102830000FBECDBFCF91DF911F910F91FF90EF9011
:10284000DF90CF900895DF93CF93CDB7DEB7639736
:102850000FB6F894DEBF0FBECDBF0E9407208DE5F6
:1028600091E00E94591F81E060E00E94891F87E685
:1028700091E00E94591F82E060E00E94891F81E779
:1028800091E00E94591F83E060E00E94891F8BE75E
:1028900091E00E94591F81E064E00E947B07898BD0
:1028A0000E94072085E891E00E94591F81E060E0C6
:1028B0000E94891F82E991E00E94591F81E063E034
:1028C0000E947B07888B8889882F90E00E94E41FF4
:1028D00082E060E00E94891F88E991E00E94591F10
:1028E00081E063E00E947B078F878F85882F90E0CF
:1028F0000E94E41F80E090E0A8ECB2E48B879C8704
:10290000AD87BE876B857C858D859E8520E030E018
:102910004AE753E40E941F02DC01CB018F839887B2
:10292000A987BA876F81788589859A8520E030E00C
:1029300040E85FE30E94250488232CF481E090E0C6
:102940009E838D833FC06F81788589859A8520E03D
:102950003FEF4FE757E40E94C50318164CF56B850F
:102960007C858D859E8520E030E040E251E40E9428
:102970001F02DC01CB01BC01CD010E944900DC013A
:10298000CB019E838D830FC089E190E09C838B8374
:102990008B819C810197F1F79C838B838D819E8134
:1029A00001979E838D838D819E81009769F714C066
:1029B0006F81788589859A850E944900DC01CB0169
:1029C0009E838D838D819E819A83898389819A815B
:1029D0000197F1F79A8389838989282F30E03B8B0F
:1029E0002A8B8A899B898230910519F12A893B8932
:1029F0002330310534F48A899B898130910561F057
:102A00003EC02A893B892330310501F18A899B899F
:102A10008430910541F133C086EB92E068894F859F
:102A20000E944815888980934C038F8580934D03BD
:102A300026C08AED92E068894F850E9448158889F2
:102A4000809348038F858093490319C08EEF92E0ED
:102A500068894F850E9448158889809346038F8531
:102A6000809347030CC082E293E068894F850E94FF
:102A70004815888980934A038F8580934B0363961A
:102A80000FB6F894DEBF0FBECDBFCF91DF91089592
:102A90000F931F93DF93CF93CDB7DEB7A3970FB6F6
:102AA000F894DEBF0FBECDBF99A388A36AA34BA342
:102AB0001B8A198A8BE2888B8AE0FE017696DF01F9
:102AC000982F1D929A95E9F70E9407201D8A14C13C
:102AD0008D8960E00E94891F1C8A06C18BE2888B69
:102AE0008C89282F30E0C901880F991F880F991F02
:102AF000820F931F982F8D89692F0E94891F0E9432
:102B0000CA198A8B8A890E94B60B8F878A898D3071
:102B100009F4F7C08F858823A1F48A89805D0E941B
:102B20006A1D8989282F30E08A89482F405DCE01AF
:102B30004696FC01E20FF31F408389898F5F898BE2
:102B400008C08A898D3329F08A890E946A1D8A8982
:102B5000888B80E090E0AAEFB3E48B879C87AD87F9
:102B6000BE876B857C858D859E8520E030E04AE7B9
:102B700053E40E941F02DC01CB018F839887A98751
:102B8000BA876F81788589859A8520E030E040E8B2
:102B90005FE30E94250488232CF481E090E09E836B
:102BA0008D833FC06F81788589859A8520E03FEFCE
:102BB0004FE757E40E94C50318164CF56B857C85DA
:102BC0008D859E8520E030E040E251E40E941F02A6
:102BD000DC01CB01BC01CD010E944900DC01CB012D
:102BE0009E838D830FC089E190E09C838B838B81D2
:102BF0009C810197F1F79C838B838D819E81019746
:102C00009E838D838D819E81009769F714C06F81AB
:102C1000788589859A850E944900DC01CB019E83D5
:102C20008D838D819E819A83898389819A81019781
:102C3000F1F79A8389838A898D3309F060CF898976
:102C4000282F30E0CE014696FC01E20FF31F1082E0
:102C5000198A8B89882F90E09C01220F331F220F45
:102C6000331F88A199A18C01020F131FCE01469634
:102C70000E946F20DC01CB01BC01CD010E945504F4
:102C8000DC01CB01F80180839183A283B38388891F
:102C90008D3221F58B89882F90E09C01220F331F04
:102CA000220F331F88A199A1AC01420F531F8B89BA
:102CB000882F90E09C01220F331F220F331F88A121
:102CC00099A1FC01E20FF31F80819181A281B38160
:102CD000B058FA0180839183A283B3838B898F5F7D
:102CE0008B8B8C898F5F8C8B9C898BA1981708F4B8
:102CF000F5CE8D898F5F8D8B9D898AA1981708F4F9
:102D0000E7CEA3960FB6F894DEBF0FBECDBFCF912E
:102D1000DF911F910F910895DF93CF9300D000D0E2
:102D20000F92CDB7DEB789836A834B838A8188305F
:102D300008F0D5C08981843008F0D1C08981282F5E
:102D400030E03D832C838C819D818130910509F495
:102D500043C02C813D81223031052CF48C819D8132
:102D6000009771F0BCC02C813D812230310509F4FF
:102D70005FC08C819D818330910509F485C0AFC00F
:102D80008B818130A1F4AAE3B0E0EAE3F0E0808136
:102D9000482F8A81282F30E081E090E0022E02C087
:102DA000880F991F0A94E2F7842B8C9398C0AAE3AA
:102DB000B0E0EAE3F0E08081482F8A81282F30E0FC
:102DC00081E090E0022E02C0880F991F0A94E2F77A
:102DD000809584238C9383C08B818130A1F4A7E3F9
:102DE000B0E0E7E3F0E08081482F8A81282F30E0CF
:102DF00081E090E0022E02C0880F991F0A94E2F74A
:102E0000842B8C936CC0A7E3B0E0E7E3F0E0808113
:102E1000482F8A81282F30E081E090E0022E02C006
:102E2000880F991F0A94E2F7809584238C9357C0EA
:102E30008B818130A1F4A4E3B0E0E4E3F0E0808191
:102E4000482F8A81282F30E081E090E0022E02C0D6
:102E5000880F991F0A94E2F7842B8C9340C0A4E357
:102E6000B0E0E4E3F0E08081482F8A81282F30E051
:102E700081E090E0022E02C0880F991F0A94E2F7C9
:102E8000809584238C932BC08B818130A1F4A1E3A6
:102E9000B0E0E1E3F0E08081482F8A81282F30E024
:102EA00081E090E0022E02C0880F991F0A94E2F799
:102EB000842B8C9314C0A1E3B0E0E1E3F0E08081C7
:102EC000482F8A81282F30E081E090E0022E02C056
:102ED000880F991F0A94E2F7809584238C930F90B2
:102EE0000F900F900F900F90CF91DF910895DF9387
:102EF000CF9300D000D00F92CDB7DEB789836A831D
:102F00004B838A81883008F0D5C08981843008F0ED
:102F1000D1C08981282F30E03D832C838C819D8115
:102F20008130910509F443C02C813D812230310567
:102F30002CF48C819D81009771F0BCC02C813D8167
:102F40002230310509F45FC08C819D818330910569
:102F500009F485C0AFC08B818130A1F4ABE3B0E050
:102F6000EBE3F0E08081482F8A81282F30E081E078
:102F700090E0022E02C0880F991F0A94E2F7842B7A
:102F80008C9398C0ABE3B0E0EBE3F0E08081482F96
:102F90008A81282F30E081E090E0022E02C0880F65
:102FA000991F0A94E2F7809584238C9383C08B81C8
:102FB0008130A1F4A8E3B0E0E8E3F0E08081482F9D
:102FC0008A81282F30E081E090E0022E02C0880F35
:102FD000991F0A94E2F7842B8C936CC0A8E3B0E0AD
:102FE000E8E3F0E08081482F8A81282F30E081E0FB
:102FF00090E0022E02C0880F991F0A94E2F7809594
:1030000084238C9357C08B818130A1F4A5E3B0E079
:10301000E5E3F0E08081482F8A81282F30E081E0CD
:1030200090E0022E02C0880F991F0A94E2F7842BC9
:103030008C9340C0A5E3B0E0E5E3F0E08081482F49
:103040008A81282F30E081E090E0022E02C0880FB4
:10305000991F0A94E2F7809584238C932BC08B816F
:103060008130A1F4A2E3B0E0E2E3F0E08081482FF8
:103070008A81282F30E081E090E0022E02C0880F84
:10308000991F0A94E2F7842B8C9314C0A2E3B0E05A
:10309000E2E3F0E08081482F8A81282F30E081E050
:1030A00090E0022E02C0880F991F0A94E2F78095E3
:1030B00084238C930F900F900F900F900F90CF91CF
:1030C000DF910895DF93CF9300D000D00F92CDB75A
:1030D000DEB78A836B8319828B81883008F084C0C5
:1030E0008A81843008F080C08A81282F30E03D83B7
:1030F0002C834C815D814130510579F18C819D811A
:103100008230910534F42C813D812115310569F01F
:103110006BC04C815D8142305105B9F18C819D813C
:103120008330910509F449C05FC0E9E3F0E0808194
:10313000282F30E08B81882F90E0A90102C055959F
:1031400047958A95E2F7CA0181709070882319F03B
:1031500081E0898349C0198247C0E6E3F0E08081BD
:10316000282F30E08B81882F90E0A90102C055956F
:1031700047958A95E2F7CA0181709070882319F00B
:1031800081E0898331C019822FC0E3E3F0E08081C0
:10319000282F30E08B81882F90E0A90102C055953F
:1031A00047958A95E2F7CA0181709070882319F0DB
:1031B00081E0898319C0198217C0E0E3F0E08081C3
:1031C000282F30E08B81882F90E0A90102C055950F
:1031D00047958A95E2F7CA0181709070882319F0AB
:1031E00081E0898301C0198289810F900F900F902F
:1031F0000F900F90CF91DF910895DF93CF9300D080
:1032000000D0CDB7DEB789836A838981843090F599
:103210008981282F30E03C832B838B819C818130F6
:103220009105D1F02B813C81223031052CF48B812A
:103230009C81009761F01EC02B813C8122303105BA
:1032400081F08B819C818330910581F013C0EAE38A
:10325000F0E08A8180830EC0E7E3F0E08A8180831A
:1032600009C0E4E3F0E08A81808304C0E1E3F0E098
:103270008A8180830F900F900F900F90CF91DF91F4
:103280000895DF93CF9300D000D0CDB7DEB7898308
:103290006A838981843090F58981282F30E03C83CE
:1032A0002B838B819C8181309105D1F02B813C81D6
:1032B000223031052CF48B819C81009761F01EC077
:1032C0002B813C812230310581F08B819C818330C0
:1032D000910581F013C0EBE3F0E08A8180830EC09A
:1032E000E8E3F0E08A81808309C0E5E3F0E08A81C9
:1032F000808304C0E2E3F0E08A8180830F900F9026
:103300000F900F90CF91DF910895DF93CF9300D06E
:1033100000D0CDB7DEB78A8319828A81843090F5D8
:103320008A81282F30E03C832B838B819C818130E4
:103330009105D1F02B813C81223031052CF48B8119
:103340009C81009761F01EC02B813C8122303105A9
:1033500081F08B819C818330910581F013C0E9E37A
:10336000F0E0808189830EC0E6E3F0E0808189830C
:1033700009C0E3E3F0E08081898304C0E0E3F0E08A
:103380008081898389810F900F900F900F90CF914A
:10339000DF910895DF93CF9300D0CDB7DEB781E002
:1033A00064E040E00E948C1681E065E040E00E940D
:1033B0008C1681E066E040E00E948C1681E067E0B8
:1033C00040E00E948C1681E060E040E00E948C1694
:1033D00081E061E040E00E948C1681E062E040E024
:1033E0000E948C1681E063E040E00E948C161982F6
:1033F0003BC08981982F9C5F81E0692F41E00E944A
:103400008C168981982F9C5F81E0692F40E00E9493
:1034100077171A821BC081E06A810E946218882394
:1034200091F48A81882F90E0880F991F880F991F47
:10343000982F8981890F8F5F0E94381A0F900F9003
:10344000CF91DF9108958A818F5F8A838A8184304A
:1034500010F38981982F9C5F81E0692F40E00E94E2
:103460008C1689818F5F89838981843010F2BFCF68
:10347000DF93CF9300D000D0CDB7DEB78A83198217
:103480008A81282F30E03C832B838B819C8188307C
:10349000910509F470C02B813C81293031055CF520
:1034A0008B819C818430910509F459C02B813C812A
:1034B000253031059CF48B819C818230910509F483
:1034C00048C02B813C81233031050CF045C08B81F5
:1034D0009C818130910509F439C067C02B813C8102
:1034E0002630310509F441C08B819C8187309105DC
:1034F0000CF03EC037C02B813C812C30310509F4E3
:1035000046C08B819C818D3091055CF42B813C8180
:103510002A303105B1F18B819C818B309105A4F566
:103520002DC02B813C812E303105B9F18B819C81DE
:103530008E3091057CF12B813C812F30310579F162
:103540008B819C818031910569F12FC087E089834F
:103550002EC088E089832BC089E0898328C085E25A
:10356000898325C084E0898322C085E089831FC0C8
:1035700086E089831CC08AE2898319C081E089833F
:1035800016C082E0898313C083E0898310C08DE276
:1035900089830DC08DE089830AC0198208C08DE33C
:1035A000898305C08BE2898302C08A8189838981EE
:1035B0000F900F900F900F90CF91DF910895DF93B0
:1035C000CF93CDB7DEB72E970FB6F894DEBF0FBE00
:1035D000CDBF82E060E041E00E948C1682E061E0B5
:1035E00041E00E948C1680E090E0A0EAB1E48B8775
:1035F0009C87AD87BE876B857C858D859E8520E009
:1036000030E04AE753E40E941F02DC01CB018F83C4
:103610009887A987BA876F81788589859A8520E000
:1036200030E040E85FE30E94250488232CF481E029
:1036300090E09E838D833FC06F81788589859A85D0
:1036400020E03FEF4FE757E40E94C50318164CF502
:103650006B857C858D859E8520E030E040E251E4DD
:103660000E941F02DC01CB01BC01CD010E94490078
:10367000DC01CB019E838D830FC089E190E09C83A8
:103680008B838B819C810197F1F79C838B838D8148
:103690009E8101979E838D838D819E81009769F71E
:1036A00014C06F81788589859A850E944900DC0164
:1036B000CB019E838D838D819E819A8389838981AD
:1036C0009A810197F1F79A83898380E06FEF0E94D6
:1036D000FD1888E30E947B1B8CE00E947B1B81E02D
:1036E0000E947B1B2E960FB6F894DEBF0FBECDBF97
:1036F000CF91DF910895DF93CF93CDB7DEB7E997F0
:103700000FB6F894DEBF0FBECDBF89AF82E060E098
:1037100040E00E94771780E090E0A0E8BFE38DAB27
:103720009EABAFABB8AF6DA97EA98FA998AD20E0D5
:1037300030E04AE753E40E941F02DC01CB0189AB71
:103740009AABABABBCAB69A97AA98BA99CA920E0C9
:1037500030E040E85FE30E94250488232CF481E0F8
:1037600090E098AB8FA73FC069A97AA98BA99CA9C3
:1037700020E03FEF4FE757E40E94C50318164CF5D1
:103780006DA97EA98FA998AD20E030E040E251E418
:103790000E941F02DC01CB01BC01CD010E94490047
:1037A000DC01CB0198AB8FA70FC089E190E09EA709
:1037B0008DA78DA59EA50197F1F79EA78DA78FA533
:1037C00098A9019798AB8FA78FA598A9009769F73B
:1037D00014C069A97AA98BA99CA90E944900DC019F
:1037E000CB0198AB8FA78FA598A99CA78BA78BA57A
:1037F0009CA50197F1F79CA78BA782E061E041E0CF
:103800000E94771780E090E0A0E8BFE38FA398A71D
:10381000A9A7BAA76FA178A589A59AA520E030E04D
:103820004AE753E40E941F02DC01CB018BA39CA357
:10383000ADA3BEA36BA17CA18DA19EA120E030E031
:1038400040E85FE30E94250488232CF481E090E0A7
:103850009AA389A33FC06BA17CA18DA19EA120E06A
:103860003FEF4FE757E40E94C50318164CF56FA1D0
:1038700078A589A59AA520E030E040E251E40E94B5
:103880001F02DC01CB01BC01CD010E944900DC011B
:10389000CB019AA389A30FC089E190E098A38F8FF1
:1038A0008F8D98A10197F1F798A38F8F89A19AA185
:1038B00001979AA389A389A19AA1009769F714C0D7
:1038C0006BA17CA18DA19EA10E944900DC01CB01CE
:1038D0009AA389A389A19AA19E8F8D8F8D8D9E8D8C
:1038E0000197F1F79E8F8D8F80E069AD0E9441199D
:1038F00080E090E0A0E8BFE3898F9A8FAB8FBC8F08
:10390000698D7A8D8B8D9C8D20E030E04AE753E401
:103910000E941F02DC01CB018D8B9E8BAF8BB88F79
:103920006D897E898F89988D20E030E040E85FE3E3
:103930000E94250488232CF481E090E09C8B8B8BE3
:103940003FC06D897E898F89988D20E03FEF4FE7DA
:1039500057E40E94C50318164CF5698D7A8D8B8D3E
:103960009C8D20E030E040E251E40E941F02DC0127
:10397000CB01BC01CD010E944900DC01CB019C8B35
:103980008B8B0FC089E190E09A8B898B89899A890A
:103990000197F1F79A8B898B8B899C8901979C8B76
:1039A0008B8B8B899C89009769F714C06D897E8900
:1039B0008F89988D0E944900DC01CB019C8B8B8BF9
:1039C0008B899C89988B8F878F8598890197F1F7D0
:1039D000988B8F8782E061E040E00E94771780E05B
:1039E00090E0A0E8BFE38B879C87AD87BE876B859F
:1039F0007C858D859E8520E030E04AE753E40E9477
:103A00001F02DC01CB018F839887A987BA876F815A
:103A1000788589859A8520E030E040E85FE30E9460
:103A2000250488232CF481E090E09E838D833FC0A1
:103A30006F81788589859A8520E03FEF4FE757E4CD
:103A40000E94C50318164CF56B857C858D859E8577
:103A500020E030E040E251E40E941F02DC01CB0193
:103A6000BC01CD010E944900DC01CB019E838D8306
:103A70000FC089E190E09C838B838B819C810197AF
:103A8000F1F79C838B838D819E8101979E838D832B
:103A90008D819E81009769F714C06F817885898533
:103AA0009A850E944900DC01CB019E838D838D8124
:103AB0009E819A83898389819A810197F1F79A83FC
:103AC0008983E9960FB6F894DEBF0FBECDBFCF91C4
:103AD000DF910895DF93CF93CDB7DEB7E9970FB6A7
:103AE000F894DEBF0FBECDBF89AF82E060E041E059
:103AF0000E94771780E090E0A0E8BFE38DAB9EAB1B
:103B0000AFABB8AF6DA97EA98FA998AD20E030E02A
:103B10004AE753E40E941F02DC01CB0189AB9AAB58
:103B2000ABABBCAB69A97AA98BA99CA920E030E01A
:103B300040E85FE30E94250488232CF481E090E0B4
:103B400098AB8FA73FC069A97AA98BA99CA920E04F
:103B50003FEF4FE757E40E94C50318164CF56DA9D7
:103B60007EA98FA998AD20E030E040E251E40E94A8
:103B70001F02DC01CB01BC01CD010E944900DC0128
:103B8000CB0198AB8FA70FC089E190E09EA78DA7CE
:103B90008DA59EA50197F1F79EA78DA78FA598A942
:103BA000019798AB8FA78FA598A9009769F714C0C4
:103BB00069A97AA98BA99CA90E944900DC01CB01C3
:103BC00098AB8FA78FA598A99CA78BA78BA59CA521
:103BD0000197F1F79CA78BA782E061E041E00E948A
:103BE000771780E090E0A0E8BFE38FA398A7A9A78C
:103BF000BAA76FA178A589A59AA520E030E04AE789
:103C000053E40E941F02DC01CB018BA39CA3ADA354
:103C1000BEA36BA17CA18DA19EA120E030E040E875
:103C20005FE30E94250488232CF481E090E09AA3AE
:103C300089A33FC06BA17CA18DA19EA120E03FEF95
:103C40004FE757E40E94C50318164CF56FA178A5FD
:103C500089A59AA520E030E040E251E40E941F02CD
:103C6000DC01CB01BC01CD010E944900DC01CB018C
:103C70009AA389A30FC089E190E098A38F8F8F8DBD
:103C800098A10197F1F798A38F8F89A19AA1019725
:103C90009AA389A389A19AA1009769F714C06BA17F
:103CA0007CA18DA19EA10E944900DC01CB019AA3B9
:103CB00089A389A19AA19E8F8D8F8D8D9E8D01974D
:103CC000F1F79E8F8D8F80E069AD0E94411980E0F1
:103CD00090E0A0E8BFE3898F9A8FAB8FBC8F698D8E
:103CE0007A8D8B8D9C8D20E030E04AE753E40E9472
:103CF0001F02DC01CB018D8B9E8BAF8BB88F6D8942
:103D00007E898F89988D20E030E040E85FE30E9453
:103D1000250488232CF481E090E09C8B8B8B3FC0A2
:103D20006D897E898F89988D20E03FEF4FE757E4BA
:103D30000E94C50318164CF5698D7A8D8B8D9C8D6C
:103D400020E030E040E251E40E941F02DC01CB01A0
:103D5000BC01CD010E944900DC01CB019C8B8B8B07
:103D60000FC089E190E09A8B898B89899A890197A4
:103D7000F1F79A8B898B8B899C8901979C8B8B8B14
:103D80008B899C89009769F714C06D897E898F891A
:103D9000988D0E944900DC01CB019C8B8B8B8B8919
:103DA0009C89988B8F878F8598890197F1F7988BDD
:103DB0008F8782E061E040E00E94771780E090E02A
:103DC000A0E8BFE38B879C87AD87BE876B857C852A
:103DD0008D859E8520E030E04AE753E40E941F0273
:103DE000DC01CB018F839887A987BA876F8178859B
:103DF00089859A8520E030E040E85FE30E94250451
:103E000088232CF481E090E09E838D833FC06F81F6
:103E1000788589859A8520E03FEF4FE757E40E9437
:103E2000C50318164CF56B857C858D859E8520E035
:103E300030E040E251E40E941F02DC01CB01BC01F2
:103E4000CD010E944900DC01CB019E838D830FC010
:103E500089E190E09C838B838B819C810197F1F7B2
:103E60009C838B838D819E8101979E838D838D8121
:103E70009E81009769F714C06F81788589859A853E
:103E80000E944900DC01CB019E838D838D819E8140
:103E90009A83898389819A810197F1F79A8389832B
:103EA000E9960FB6F894DEBF0FBECDBFCF91DF917C
:103EB0000895DF93CF9300D00F92CDB7DEB79B83E9
:103EC0008A83198215C08981803121F482E060E003
:103ED0000E94891F8981282F30E08A819B81FC0103
:103EE000E20FF31F80810E946A1D89818F5F8983A1
:103EF0008981282F30E08A819B81FC01E20FF31F2A
:103F00008081882301F70F900F900F90CF91DF9160
:103F10000895DF93CF9300D000D00F92CDB7DEB7D6
:103F20008A836B838A81282F30E03D832C838C81A8
:103F30009D8181309105C1F02C813D812230310578
:103F40002CF48C819D81009761F019C02C813D81FA
:103F50002230310569F08C819D818330910561F0BB
:103F60000EC08B8189830BC08B81805C898307C0E5
:103F70008B81805F898303C08B81805B898389818A
:103F800080680E947B1B0F900F900F900F900F90F6
:103F9000CF91DF910895DF93CF9300D000D0CDB7BC
:103FA000DEB789836A835C834B8389816A810E943F
:103FB000891F8B819C810E94591F0F900F900F9039
:103FC0000F90CF91DF910895DF93CF93CDB7DEB7F8
:103FD00062970FB6F894DEBF0FBECDBF9A8B898B68
:103FE00089899A899E012F5F3F4FB9014AE050E0CD
:103FF0000E949620CE0101960E94591F62960FB62C
:10400000F894DEBF0FBECDBFCF91DF910895DF934F
:10401000CF93CDB7DEB781E00E947B1BCF91DF91BC
:10402000089597FB092E07260AD077FD04D00CD0FF
:1040300006D000201AF4709561957F4F0895F6F729
:10404000909581959F4F0895AA1BBB1B51E107C016
:10405000AA1FBB1FA617B70710F0A61BB70B881F18
:10406000991F5A95A9F780959095BC01CD010895A7
:104070002F923F924F925F926F927F928F929F9278
:10408000AF92BF92CF92DF92EF92FF920F931F9366
:10409000CF93DF93CDB7DEB7CA1BDB0B0FB6F89417
:1040A000DEBF0FBECDBF09942A88398848885F8457
:1040B0006E847D848C849B84AA84B984C884DF80C8
:1040C000EE80FD800C811B81AA81B981CE0FD11DAC
:1040D0000FB6F894DEBF0FBECDBFED0108951F935C
:1040E000FC0199278827BC01E89411911032E9F36B
:1040F000193010F01E30C8F31B3251F01D3249F454
:10410000689406C00E94B720610F711D811D911D2A
:10411000119110531A30B0F33EF49095809570953C
:1041200061957F4F8F4F9F4F1F910895FB019F0116
:10413000E8944230C4F04532B4F44A3029F497FB95
:104140001EF4909581959F4F642F77270E9424201D
:10415000805D8A330CF0895D8193CB010097A1F7D4
:1041600016F45DE251931082C9010C940E21592F6F
:10417000482F372F262F660F771F881F991F660F2E
:10418000771F881F991F620F731F841F951F660F6B
:10419000771F881F991F089511F40EF45DC04EC05B
:1041A0006DD0D0F39923D9F3CEF39F57550B87FFEA
:1041B00056D00024A0E640EA900180585695979585
:1041C00028F4805C660F771F881F20F026173707BA
:1041D000480730F4621B730B840B202931294A2BCA
:1041E000A69517940794202531254A2758F7660F7E
:1041F000771F881F20F026173707480730F4620B17
:10420000730B840B200D311D411DA09581F7B90161
:10421000842F9158880F969587950895DC01FC01AD
:10422000672F71917723E1F7329704C07C916D93EA
:1042300070836291AE17BF07C8F308959F3F31F0B6
:10424000915020F4879577956795B795880F911DC4
:104250009695879597F908959FEF80EC0895915072
:104260005040660F771F881FD2F7089557FD90586A
:10427000440F551F59F05F3F71F04795880F97FB2A
:10428000991F61F09F3F79F08795089512161306E4
:104290001406551FF2CF4695F1DF08C01616170613
:1042A0001806991FF1CF8695710561050894089548
:0442B000F894FFCFB0
:1042B400456E746572204D6F6465202100313A4E5D
:1042C4004F524D2020323A434D504C5800333A451A
:1042D400514E532020343A4D54525800353A5645E5
:1042E40043542020363A5441424C45002020204E6D
:1042F4006F726D616C204D6F6465003D002020205D
:10430400436F6D706C6578204D6F646500202045A7
:1043140071756174696F6E204D6F646500313A6127
:104324006E582B626E593D636E00323A61585E32AC
:104334002B62582B633D3000333A616E582B626E0A
:10434400592B636E5A3D646E0020204D617472696E
:1043540078204D6F646500313A4461746100323AEB
:1043640053756D00333A5375627400343A4D756C6D
:1043740000353A54726E7300363A496E76730020F3
:104384002020566563746F72204D6F646500202091
:10439400205461626C65204D6F64650058313D00A6
:1043A40058323D00583D00593D005A3D00313A4DC8
:1043B40061747269784100323A4D6174726978426D
:1043C40000333A4D61747269784300343A4D617434
:1043D4007269784400456E7465722053697A652069
:1043E4002100526F77733A00436F6C756D6E733AA8
:1043F40000000000000000000000010202030303AB
:104404000304040404040404040505050505050562
:104414000505050505050505050606060606060641
:104424000606060606060606060606060606060628
:104434000606060606060606060707070707070711
:1044440007070707070707070707070707070707F8
:1044540007070707070707070707070707070707E8
:1044640007070707070707070707070707070707D8
:1044740007070707070707070708080808080808C1
:1044840008080808080808080808080808080808A8
:104494000808080808080808080808080808080898
:1044A4000808080808080808080808080808080888
:1044B4000808080808080808080808080808080878
:1044C4000808080808080808080808080808080868
:1044D4000808080808080808080808080808080858
:1044E4000808080808080808080808080808080848
:1044F40008080808080808080810081A0A330A7E79
:064504000A840B9D0B0070
:00000001FF
